:020000040800F2
:100000000000022099110008551000085B1000083C
:1000100061100008671000086D1000080000000063
:100020000000000000000000000000007310000845
:1000300081100008000000008F1000089D100008CB
:10004000E9110008E9110008E9110008E9110008A8
:10005000E9110008E9110008E9110008E911000898
:10006000E9110008E9110008E9110008E911000888
:10007000E9110008E9110008E9110008E911000878
:10008000E9110008E9110008E9110008E911000868
:10009000E9110008E9110008E9110008E911000858
:1000A000E9110008E9110008E9110008E911000848
:1000B000E9110008E9110008E9110008E911000838
:1000C000E9110008E9110008E9110008E911000828
:1000D000E9110008A9100008E9110008E911000859
:1000E000BD100008E9110008E9110008E911000835
:1000F000CD100008E1100008E9110008E91100081E
:10010000E9110008E9110008E9110008E9110008E7
:10011000E9110008E9110008E9110008E9110008D7
:10012000E9110008E9110008E9110008E9110008C7
:10013000E9110008E9110008E9110008E9110008B7
:10014000F5100008E9110008E9110008E91100089C
:10015000E9110008E9110008E9110008E911000897
:10016000E9110008E9110008E9110008E911000887
:10017000E9110008E9110008E91100080000000079
:08018000E9110008E911000873
:1001900010B5054C237833B9044B13B10448AFF3C1
:1001A00000800123237010BDA40000200000000087
:1001B0004C4F000808B5034B1BB103490348AFF38C
:1001C000008008BD00000000A80000204C4F00087F
:1001D00001F0FF01102A2BDB10F0070F08D010F8F8
:1001E000013B013A8B422DD010F0070F42B3F6D1FC
:1001F000F0B441EA012141EA014122F007047FF015
:1002000000070023F0E80256083C85EA010586EA6B
:10021000010685FA47F5A3FA87F586FA47F6A5FAA7
:1002200087F68EB9EED1F0BC01F0FF0102F00702B3
:1002300032B110F8013B013A83EA010313B1F8D15E
:100240000020704701387047002D06BF354603383F
:10025000073815F0010F07D1013015F4807F02BF78
:10026000013015F4C03F0130F0BC0138704700BFC9
:1002700053B94AB9002908BF00281CBF4FF0FF310D
:100280004FF0FF3000F070B9ADF1080C6DE904CE0D
:1002900000F006F8DDF804E0DDE9022304B0704761
:1002A0002DE9F047089E0D4604460F46002B4AD123
:1002B0008A42944665D9B2FA82F343B102FA03FC4A
:1002C000C3F120029F4020FA02F217439C404FEAFC
:1002D0001C4E1FFA8CF5B7FBFEF1220C0EFB1177BA
:1002E00042EA074201FB05F090420AD91CEB0202E8
:1002F00001F1FF3780F01C81904240F219810239F0
:100300006244121AA4B2B2FBFEF00EFB102244EAC1
:10031000024400FB05F5A5420AD91CEB040400F1D8
:10032000FF3280F00781A54240F204816444023824
:1003300040EA0140641B00211EB1DC400023C6E9F5
:100340000043BDE8F0878B4208D9002E00F0ED8015
:100350000021C6E900050846BDE8F087B3FA83F13D
:10036000002949D1AB4202D3824200F2F880841ABC
:1003700065EB030201201746002EE2D0C6E90047D4
:10038000DFE702B9FFDEB2FA82F3002B40F0908083
:100390008A1A4FEA1C471FFA8CFE0121B2FBF7F5BF
:1003A00007FB1520220C42EA00420EFB05F09042AA
:1003B00008D91CEB020205F1FF3802D2904200F28C
:1003C000CB804546121AA4B2B2FBF7F007FB10220D
:1003D00044EA02440EFB00FEA64508D91CEB0404C7
:1003E00000F1FF3202D2A64500F2BB801046A4EB1A
:1003F0000E0440EA05409FE7C1F120078B4022FA36
:1004000007FC4CEA030C05FA01F420FA07F3FD405F
:100410004FEA1C492343B5FBF9F81FFA8CFE09FB90
:1004200018551C0C44EA054408FB0EF5A54202FAD7
:1004300001F200FA01F00BD91CEB040408F1FF3AB9
:1004400080F08880A54240F28580A8F102086444CB
:10045000641B9DB2B4FBF9F309FB134445EA044461
:1004600003FB0EFEA64508D91CEB040403F1FF357F
:100470006CD2A6456AD9023B644443EA0843A3FB15
:100480000295A4EB0E04AC42C846AE4656D353D0F8
:1004900056B1B0EB080264EB0E0404FA07F7CA4049
:1004A000CC401743C6E9007418460021BDE8F08728
:1004B000C3F1200102FA03FC20FA01F225FA01F14E
:1004C0009D402A434FEA1C471FFA8CFEB1FBF7F010
:1004D00007FB1015110C41EA054100FB0EF58D429A
:1004E00004FA03F408D91CEB010100F1FF382FD204
:1004F0008D422DD902386144491B92B2B1FBF7F508
:1005000007FB151142EA014205FB0EF1914208D9A1
:100510001CEB020205F1FF3816D2914214D9023DBC
:100520006244521A45EA004138E73146304608E74E
:100530003946E6E61046FBE64845A9D2B9EB020883
:1005400065EB0C0E013BA3E74546EAE72B4694E733
:100550004046D1E7D0467BE7023D624432E7084699
:100560000AE76444023842E7704700BF80B582B0B2
:1005700000AF7860074B084A0021786801F0E0F985
:100580004FF40051054802F0C4F800BF0837BD46DB
:1005900080BD00BF3802002004020020001002408D
:1005A00080B582B000AF0346FB71C7F800C0FB798D
:1005B00003F00103DBB21A464FF48071274802F0C2
:1005C0008FF8FB795B10DBB203F00103DBB21A4654
:1005D0004FF40071214802F083F8FB799B10DBB2E5
:1005E00003F00103DBB21A464FF480611B4802F0AE
:1005F00077F8FB79DB10DBB203F00103DBB21A46BC
:100600004FF40061154802F06BF8FB791B11DBB267
:1006100003F00103DBB21A464FF480510F4802F099
:100620005FF8FB795B11DBB203F00103DBB21A4622
:100630004FF40051094802F053F8FB799B11DBB2EB
:1006400003F00103DBB21A464FF48041034802F085
:1006500047F800BF0837BD4680BD00BF000C024010
:10066000F0B591B008AF07F13803BB6100F0BEFDF3
:1006700000F016F900F054FA00F028FA00F078F9CA
:1006800000F0DCF900F0FEF9724801F021F80221D7
:10069000704801F077FA04226F49704803F037F888
:1006A0006F4802F011FD6F4802F00EFD012210218B
:1006B0006D4802F015F8012220216B4802F010F875
:1006C00001224021684802F00BF80023FB77674ABB
:1006D00007F10C0307CA03C31A80654B26221A7060
:1006E000634B5C225A70624B03229A70604B00226B
:1006F000DA705F4BFF221A715D4BFF225A715C4B1F
:10070000FF229A715A4BFF22DA714FF48041594807
:1007100001F0FFFFFB7F183307F10802134413F8C1
:10072000143C07F1180294461846FFF739FFFB7F87
:100730000133FB77FB7F092B01D90023FB774FF4B3
:1007400000614C4801F0B4FF0346002B04D04FF485
:100750000051484801F0DDFF4FF0FF33102298218F
:100760003E4802F049FF444B414A4449394800F0B1
:10077000F3FF0023BB7714E04FF496731222404935
:10078000364802F039FFBB7F032B07D14FF4967335
:100790001B223C49314802F02FFF0BE0BB7F0133A5
:1007A000BB77354B1B6819462A4801F0A5F803466C
:1007B000002BE1D1314B5B681A463349334803F0D3
:1007C00021FF334B5A68334B1B789C46314B5B7887
:1007D0001946304B9B7818462E4BDB781C462D4B28
:1007E0001B791D462B4B5B791E462A4B9B797B6000
:1007F000284BDB7906937B68059304960395029456
:100800000190009163462449204803F0FBFE214BF0
:1008100000221A701F4B00225A701E4B00229A7041
:100820001C4B0022DA701B4B00221A71194B00225C
:100830005A71184B00229A71164B0022DA714FF44C
:10084000FA7000F045FD154B1B780133DAB2134BFB
:100850001A7042E7C0000020C0010020780100208B
:10086000E80000203001002000000240B04F0008E6
:100870004002002000100240480200202002002018
:10088000180000202C000020644F0008C801002040
:1008900004020020380200207C4F0008C401002020
:1008A00080B594B000AF07F1200330220021184634
:1008B00003F0C8FE07F10C0300221A605A609A6028
:1008C000DA601A610023BB60274B1B6C264A43F099
:1008D00080531364244B1B6C03F08053BB60BB68D4
:1008E00000237B60214B1B68204A43F48043136044
:1008F0001E4B1B6803F480437B607B6802233B62D2
:100900000123FB6210233B630223BB630023FB63D1
:1009100008233B6450237B640223BB640423FB64F1
:1009200007F12003184601F027FF0346002B01D0F2
:1009300000F06EFA0F23FB6002233B6100237B6112
:100940004FF48053BB610023FB6107F10C030221CC
:10095000184602F089F90346002B01D000F058FA3E
:1009600000BF5037BD4680BD0038024000700040D7
:1009700080B58AB000AF2D4B2D4A1A602B4B102248
:100980005A602A4B00229A60284B0022DA60274BDB
:100990004FF4C0221A61254B4FF480125A61234B49
:1009A00000221A76214B00225A76204B00229A769A
:1009B0001E4B0022DA761D4B00221A771B4B0022B9
:1009C0005A771A4800F0A8FC0346002B01D000F02B
:1009D0001FFA184B08221A61164B174A5A60154B1A
:1009E00004229A60134B0022DA60124B00221A751F
:1009F00001233B620A237B6100233B6100233B60B0
:100A000000237B600023BB600023FB600023BB61ED
:100A10000123FB6100237B623B461946034800F03B
:100A200077FD00BF2837BD4680BD00BFC000002055
:100A3000006800402002002000C1FE1880B500AF11
:100A40000E4B0F4A1A600D4B41F63F725A600B4B2A
:100A500000229A60094B42F21072DA60074B0022C2
:100A60001A61064B00229A61044802F0DDFA03463F
:100A7000002B01D000F0CCF900BF80BDE8000020C1
:100A8000001C004080B500AF0E4B0F4A1A600D4BA2
:100A900041F63F725A600B4B00229A60094B41F2BB
:100AA0008832DA60074B00221A61064B00229A61F5
:100AB000044802F0B9FA0346002B01D000F0A8F96F
:100AC00000BF80BD300100200020004080B500AF95
:100AD000114B124A1A60104B4FF4E1325A600E4B20
:100AE00000229A600C4B0022DA600B4B00221A6144
:100AF000094B0C225A61084B00229A61064B0022D6
:100B0000DA61054802F028FD0346002B01D000F011
:100B10007FF900BF80BD00BF7801002000100140B8
:100B200080B58AB000AF07F1140300221A605A6042
:100B30009A60DA601A6100233B61574B1B6B564A7F
:100B400043F001031363544B1B6B03F001033B6140
:100B50003B690023FB60504B1B6B4F4A43F0100373
:100B600013634D4B1B6B03F01003FB60FB6800230A
:100B7000BB60494B1B6B484A43F008031363464B69
:100B80001B6B03F00803BB60BB6800237B60424B18
:100B90001B6B414A43F0020313633F4B1B6B03F093
:100BA00002037B607B68002270213C4801F098FDC5
:100BB00000224FF460413A4801F092FD00224FF4C8
:100BC0004071384801F08CFD01224FF4F84135485E
:100BD00001F086FD70237B610123BB610123FB6172
:100BE00000233B6207F1140319462C4801F0C4FBB3
:100BF0004FF480637B614FF40413BB610023FB61FE
:100C000007F114031946264801F0B6FB4FF4C05310
:100C10007B610023BB610023FB6107F114031946CC
:100C20001F4801F0A9FB4FF460437B610123BB61C6
:100C30000123FB6100233B6207F1140319461848A6
:100C400001F09AFB4FF440737B610123BB610123E8
:100C5000FB6100233B6207F114031946114801F0C0
:100C60008BFB4FF4F8437B610123BB610223FB61E3
:100C700000233B6207F1140319460A4801F07CFB8C
:100C800000220121282001F0AEFA282001F0C7FA45
:100C900000BF2837BD4680BD00380240000002403A
:100CA00000100240000C024080B582B000AF7860B6
:100CB0004FF0FF3315220649064802F09DFC04223E
:100CC0000549044802F023FD00BF0837BD4680BD3A
:100CD0000000002078010020C001002080B584B011
:100CE00000AF0346FB8000F0E7FAF860394B1B6861
:100CF000FA68D31A322B66D9FB88B3F5806F62D1BC
:100D0000354B01221A70354B1B68012B04D1002290
:100D10001021334801F0E4FC304B1B68022B04D156
:100D2000002220212E4801F0DBFC2C4B1B68032BFA
:100D300009D1012220212A4801F0D2FC00224021C1
:100D4000274801F0CDFC254B1B68042B09D101225B
:100D50001021234801F0C4FC00222021204801F08A
:100D6000BFFC1E4B1B68052B04D1012240211C48EF
:100D700001F0B6FC194B1B68062B09D1012220217A
:100D8000174801F0ADFC00224021154801F0A8FCF5
:100D9000124B1B68062B11DD01221021104801F0B7
:100DA0009FFC012220210E4801F09AFC01224021E3
:100DB0000B4801F095FC094B00221A60074B1B6899
:100DC0000133064A1360034AFB68136000BF103703
:100DD000BD4680BD500200204C020020540200207D
:100DE0000000024080B582B000AF78607B681B686D
:100DF000054A934204D14FF40041044801F089FCB4
:100E000000BF0837BD4680BD0020004000100240F2
:100E100080B400AF72B600BFFEE7000080B483B0BC
:100E200000AF00237B60104B5B6C0F4A43F48043A0
:100E300053640D4B5B6C03F480437B607B68002341
:100E40003B60094B1B6C084A43F080531364064B0C
:100E50001B6C03F080533B603B6800BF0C37BD4602
:100E60005DF8047B704700BF0038024080B58AB04F
:100E700000AF786007F1140300221A605A609A608C
:100E8000DA601A617B681B68244A934241D10023CF
:100E90003B61234B1B6C224A43F080631364204B5D
:100EA0001B6C03F080633B613B690023FB601C4BC0
:100EB0001B6C1B4A43F000731364194B1B6C03F04B
:100EC0000073FB60FB680023BB60154B1B6B144A6F
:100ED00043F002031363124B1B6B03F00203BB606E
:100EE000BB6860237B610223BB610023FB6103239A
:100EF0003B6209237B6207F114031946094801F09C
:100F00003BFA00220021402001F06DF9402001F061
:100F100086F900BF2837BD4680BD00BF006800408D
:100F2000003802400004024080B584B000AF786011
:100F30007B681B681C4A934216D10023FB601B4B45
:100F40001B6C1A4A43F080031364184B1B6C03F0AC
:100F50008003FB60FB68002200212C2001F043F994
:100F60002C2001F05CF91AE07B681B68104A934260
:100F700015D10023BB600D4B1B6C0C4A43F48073EE
:100F800013640A4B1B6C03F48073BB60BB680022C4
:100F900000212D2001F027F92D2001F040F900BF9C
:100FA0001037BD4680BD00BF001C00400038024025
:100FB0000020004080B58AB000AF786007F11403CC
:100FC00000221A605A609A60DA601A617B681B68B6
:100FD0001D4A934234D100233B611C4B5B6C1B4A7E
:100FE00043F010035364194B5B6C03F010033B6137
:100FF0003B690023FB60154B1B6B144A43F0010354
:101000001363124B1B6B03F00103FB60FB684FF48F
:10101000C0637B610223BB610023FB6103233B624E
:1010200007237B6207F114031946094801F0A4F96C
:1010300000220021252001F0D6F8252001F0EFF84C
:1010400000BF2837BD4680BD001001400038024077
:101050000000024080B400AFFEE780B400AFFEE7BE
:1010600080B400AFFEE780B400AFFEE780B400AF0D
:10107000FEE780B400AF00BFBD465DF8047B70475B
:1010800080B400AF00BFBD465DF8047B704780B4FC
:1010900000AF00BFBD465DF8047B704780B500AF70
:1010A00000F0F6F800BF80BD80B500AF024802F046
:1010B00053FB00BF80BD00BF7801002080B500AFAA
:1010C0004FF4806001F040FB00BF80BD80B500AFF1
:1010D000024802F069F800BF80BD00BFE8000020B0
:1010E00080B500AF024802F05FF800BF80BD00BFCE
:1010F0003001002080B500AF024800F069FD00BF5C
:1011000080BD00BFC000002080B586B000AF786011
:10111000144A154BD31A7B617B693B61134B1B68E7
:10112000002B02D1114B124A1A60104B1A687B68CF
:1011300013443A699A4207D203F08CFA03460C2210
:101140001A604FF0FF3309E0084B1B68FB60074B48
:101150001A687B681344054A1360FB681846183701
:10116000BD4680BD0000022000040000580200209F
:10117000A803002080B400AF064BD3F88830054A9E
:1011800043F47003C2F8883000BFBD465DF8047BAD
:10119000704700BF00ED00E0DFF834D0FFF7EAFF52
:1011A0000C480D490D4A002302E0D458C4500433C2
:1011B000C4188C42F9D30A4A0A4C002301E0136098
:1011C0000432A242FBD303F04BFAFFF749FA70470F
:1011D0000000022000000020A40000201850000899
:1011E000A4000020A8030020FEE7000080B500AFA7
:1011F0000E4B1B680D4A43F4007313600B4B1B68C6
:101200000A4A43F480631360084B1B68074A43F49F
:1012100080731360032000F0DBFF0F2000F008F85C
:10122000FFF7FCFD0023184680BD00BF003C0240D4
:1012300080B582B000AF7860124B1A68124B1B78F1
:1012400019464FF47A73B3FBF1F3B2FBF3F318468C
:1012500000F0F3FF0346002B01D001230EE07B6872
:101260000F2B0AD8002279684FF0FF3000F0BBFF47
:10127000064A7B681360002300E001231846083704
:10128000BD4680BD48000020500000204C000020DA
:1012900080B400AF064B1B781A46064B1B681344FC
:1012A000044A136000BFBD465DF8047B704700BF71
:1012B000500000205C02002080B400AF034B1B688C
:1012C0001846BD465DF8047B704700BF5C020020F5
:1012D00080B584B000AF7860FFF7EEFFB8607B6840
:1012E000FB60FB68B3F1FF3F05D00A4B1B781A4641
:1012F000FB681344FB6000BFFFF7DEFF0246BB68DC
:10130000D31AFA689A42F7D800BF00BF1037BD461B
:1013100080BD00BF5000002080B584B000AF786071
:101320007B68002B01D10123EDE07B6893F820302E
:10133000DBB2002B02D17868FFF798FD7B681B6851
:101340001A687B681B6842F001021A60FFF7B4FF5D
:10135000F86012E0FFF7B0FF0246FB68D31A0A2BD1
:101360000BD97B685B6A43F400327B685A627B6806
:10137000052283F820200123C5E07B681B685B6899
:1013800003F00103002BE5D07B681B681A687B68BB
:101390001B6822F002021A60FFF78EFFF86012E06D
:1013A000FFF78AFF0246FB68D31A0A2B0BD97B682A
:1013B0005B6A43F400327B685A627B68052283F8DB
:1013C000202001239FE07B681B685B6803F0020319
:1013D000002BE5D17B681B7E012B08D17B681B6845
:1013E0001A687B681B6842F080021A6007E07B681D
:1013F0001B681A687B681B6822F080021A607B6891
:101400005B7E012B08D17B681B681A687B681B68B0
:1014100042F040021A6007E07B681B681A687B682C
:101420001B6822F040021A607B689B7E012B08D16A
:101430007B681B681A687B681B6842F020021A6090
:1014400007E07B681B681A687B681B6822F0200233
:101450001A607B68DB7E012B08D17B681B681A68E9
:101460007B681B6822F010021A6007E07B681B682B
:101470001A687B681B6842F010021A607B681B7F49
:10148000012B08D17B681B681A687B681B6842F0D7
:1014900008021A6007E07B681B681A687B681B6893
:1014A00022F008021A607B685B7F012B08D17B6801
:1014B0001B681A687B681B6842F004021A6007E028
:1014C0007B681B681A687B681B6822F004021A603C
:1014D0007B689A687B68DB681A437B681B691A43E0
:1014E0007B685B6942EA03017B685B685A1E7B6824
:1014F0001B680A43DA617B6800225A627B6801221A
:1015000083F82020002318461037BD4680BD000018
:1015100080B487B000AF786039607B681B687B61FE
:101520007B6893F82030FB74FB7C012B03D0FB7CA1
:10153000022B40F0BE80654B7B617B69D3F80032A3
:1015400043F001027B69C3F800227B69D3F80032C3
:1015500023F47C527B69C3F800227B69D3F8002214
:101560003B685B6A1B021A437B69C3F800223B6835
:101570005B6903F01F03012202FA03F3FB607B693E
:10158000D3F81C22FB68DB431A407B69C3F81C229A
:101590003B68DB69002B23D17B69D3F80C22FB6805
:1015A000DB431A407B69C3F80C223B68DB681904F3
:1015B0003B685B689BB23A68526919437B69483261
:1015C00043F832103B689B6819043B681B689AB269
:1015D0003B685B690A4379694833DB000B445A6016
:1015E0003B68DB69012B22D17B69D3F80C22FB68B5
:1015F0001A437B69C3F80C223B681B6819043B68DB
:101600005B689BB23A68526919437B69483243F878
:1016100032103B689B6819043B68DB689AB23B68F0
:101620005B690A4379694833DB000B445A603B68C5
:101630009B69002B09D17B69D3F80422FB68DB434B
:101640001A407B69C3F8042207E07B69D3F80422BF
:10165000FB681A437B69C3F804223B681B69002BB3
:1016600009D17B69D3F81422FB68DB431A407B69FC
:10167000C3F8142207E07B69D3F81422FB681A43ED
:101680007B69C3F814223B681B6A012B07D17B6975
:10169000D3F81C22FB681A437B69C3F81C227B69C0
:1016A000D3F8003223F001027B69C3F80022002343
:1016B00006E07B685B6A43F480227B685A62012300
:1016C00018461C37BD465DF8047B70470064004037
:1016D00080B584B000AF78607B6893F82030DBB2CF
:1016E000012B2ED17B68022283F820207B681B68A7
:1016F0001A687B681B6822F001021A60FFF7DCFDA4
:10170000F86012E0FFF7D8FD0246FB68D31A0A2BF7
:101710000BD97B685B6A43F400327B685A627B6852
:10172000052283F82020012312E07B681B685B6898
:1017300003F00103002BE5D17B6800225A620023ED
:1017400006E07B685B6A43F400227B685A620123EF
:1017500018461037BD4680BD80B489B000AFF86030
:10176000B9607A603B60FB6893F82030FB77FB68D8
:101770001B689B68BB61FB7F012B03D0FB7F022BA7
:1017800040F0AD80BB6903F08063002B0AD1BB69D8
:1017900003F00063002B05D1BB6903F08053002BDD
:1017A00000F09580BB691B0E03F003037B610122EF
:1017B0007B699A403B681A60BB689B68002B0DD11F
:1017C000BB681B685A05BB68DB68F96809681A437F
:1017D0007B6918331B010B441A600FE0BB685B6820
:1017E000DA00BB689B681A43BB68DB68F968096864
:1017F0001A437B6918331B010B441A60FB68196894
:10180000BB681A697B6918331B010B4404331A60E7
:10181000BB681B7D012B11D1FB681A687B691833EB
:101820001B01134404331B68FA68116843F4807287
:101830007B6918331B010B4404331A607B68073340
:101840001B781A067B6806331B781B041A437B68D7
:1018500005331B781B0213437A6804321278104652
:10186000FA68116843EA00027B691B010B4403F527
:10187000C6731A607B6803331B781A067B680233D1
:101880001B781B041A437B6801331B781B0213432C
:101890007A6812781046FA68116843EA00027B6998
:1018A0001B010B4403F5C4731A60FB681A687B695B
:1018B00018331B0113441B68FA68116843F00102D6
:1018C0007B6918331B010B441A6000230EE0FB6890
:1018D0005B6A43F40012FB685A62012306E0FB686E
:1018E0005B6A43F48022FB685A620123184624375E
:1018F000BD465DF8047B704780B485B000AF78606A
:1019000039600023FB607B6893F82030FB72FB7A20
:10191000012B02D0FB7A022B0BD17B681B689A68E3
:101920003B689B061A403B689B069A4201D0012304
:10193000FB60FB6818461437BD465DF8047B7047B2
:1019400080B487B000AFF860B9607A603B60FB6834
:1019500093F82030FB75FB7D012B03D0FB7D022B20
:1019600040F00381BB68002B0ED1FB681B68DB686D
:1019700003F00303002B16D1FB685B6A43F40012EB
:10198000FB685A620123F7E0FB681B681B6903F0E0
:101990000303002B07D1FB685B6A43F40012FB686A
:1019A0005A620123E8E0FB681A68BB681B331B011D
:1019B00013441B6803F004027B689A607B689B6891
:1019C000002B0CD1FB681A68BB681B331B01134446
:1019D0001B685B0DC3F30A027B681A600BE0FB68AF
:1019E0001A68BB681B331B0113441B68DB0823F018
:1019F00060427B685A60FB681A68BB681B331B0136
:101A000013441B6803F002027B68DA60FB681A6803
:101A1000BB681B331B01134404331B6803F008032A
:101A2000002B03D07B6808221A610BE0FB681A6860
:101A3000BB681B331B01134404331B6803F00F0204
:101A40007B681A61FB681A68BB681B331B0113446F
:101A500004331B681B0ADAB27B689A61FB681A6858
:101A6000BB681B331B01134404331B681B0C9AB265
:101A70007B685A61FB681A68BB681B01134403F555
:101A8000DC731B68DAB23B681A70FB681A68BB68C3
:101A90001B01134403F5DC731B681A0A3B6801330E
:101AA000D2B21A70FB681A68BB681B01134403F5B5
:101AB000DC731B681A0C3B680233D2B21A70FB68E5
:101AC0001A68BB681B01134403F5DC731B681A0E0C
:101AD0003B680333D2B21A70FB681A68BB681B01FB
:101AE000134403F5DE731A683B680433D2B21A70EC
:101AF000FB681A68BB681B01134403F5DE731B689F
:101B00001A0A3B680533D2B21A70FB681A68BB68C0
:101B10001B01134403F5DE731B681A0C3B68063384
:101B2000D2B21A70FB681A68BB681B01134403F534
:101B3000DE731B681A0E3B680733D2B21A70BB689B
:101B4000002B08D1FB681B68DA68FB681B6842F051
:101B50002002DA6007E0FB681B681A69FB681B68F3
:101B600042F020021A61002306E0FB685B6A43F43E
:101B70008022FB685A62012318461C37BD465DF877
:101B8000047B704780B485B000AF786039607B68B3
:101B900093F82030FB73FB7B012B02D0FB7B022BE5
:101BA00009D17B681B6859697B681B683A680A43DE
:101BB0005A61002306E07B685B6A43F480227B68FD
:101BC0005A62012318461437BD465DF8047B7047FE
:101BD00080B58AB000AF786000237B627B681B68A9
:101BE0005B693B627B681B685B68FB617B681B68A9
:101BF0009B68BB617B681B68DB687B617B681B68DB
:101C00001B693B617B681B689B69FB603B6A03F057
:101C10000103002B7CD0BB6903F00103002B23D010
:101C20007B681B6801229A60BB6903F00203002BEA
:101C300003D0786800F083F916E0BB6903F0040371
:101C4000002B04D07B6A43F400637B620CE0BB6929
:101C500003F00803002B04D07B6A43F480537B62BB
:101C600002E0786800F089F9BB6903F48073002B07
:101C700024D07B681B684FF480729A60BB6903F4C0
:101C80000073002B03D0786800F063F916E0BB699D
:101C900003F48063002B04D07B6A43F400537B621F
:101CA0000CE0BB6903F40063002B04D07B6A43F4AF
:101CB00080437B6202E0786800F069F9BB6903F455
:101CC0008033002B24D07B681B684FF480329A60ED
:101CD000BB6903F40033002B03D0786800F043F9AC
:101CE00016E0BB6903F48023002B04D07B6A43F425
:101CF00000437B620CE0BB6903F40023002B04D09B
:101D00007B6A43F480337B6202E0786800F049F933
:101D10003B6A03F00803002B0CD07B6903F010032F
:101D2000002B07D07B6A43F400737B627B681B68DF
:101D30001022DA603B6A03F00403002B0BD07B69AE
:101D400003F00803002B06D07B681B680822DA60CA
:101D5000786800F030F93B6A03F00203002B09D0E9
:101D60007B681B68DB6803F00303002B02D07868F4
:101D7000FEF7FCFB3B6A03F04003002B0CD03B69F1
:101D800003F01003002B07D07B6A43F480637B626F
:101D90007B681B6810221A613B6A03F02003002B4A
:101DA0000BD03B6903F00803002B06D07B681B684F
:101DB00008221A61786800F012F93B6A03F01003F8
:101DC000002B09D07B681B681B6903F00303002B01
:101DD00002D0786800F0F9F83B6A03F40033002B76
:101DE0000BD0FB6903F01003002B06D07B681B6847
:101DF00010225A60786800F0FCF83B6A03F48033E4
:101E0000002B0BD0FB6903F00803002B06D07B6886
:101E10001B6808225A60786800F0F5F83B6A03F402
:101E20000043002B7BD0FB6903F00403002B72D02E
:101E30003B6A03F48073002B08D0FB6803F00103B6
:101E4000002B03D07B6A43F001037B623B6A03F4FF
:101E50000073002B08D0FB6803F00203002B03D0B3
:101E60007B6A43F002037B623B6A03F48063002BCE
:101E700008D0FB6803F00403002B03D07B6A43F017
:101E800004037B623B6A03F40063002B43D0FB68CE
:101E900003F07003002B3ED0FB6803F07003602B4F
:101EA0002BD0602B2ED8502B22D0502B2AD8402B51
:101EB00019D0402B26D8302B10D0302B22D8102B05
:101EC00002D0202B05D01DE07B6A43F008037B6223
:101ED00019E07B6A43F010037B6214E07B6A43F0F5
:101EE00020037B620FE07B6A43F040037B620AE0E1
:101EF0007B6A43F080037B6205E07B6A43F4807376
:101F00007B6200E000BF7B681B689A697B681B6886
:101F100022F070029A617B681B6804225A607B6A17
:101F2000002B08D07B685A6A7B6A1A437B685A6226
:101F3000786800F072F800BF2837BD4680BD80B4D5
:101F400083B000AF786000BF0C37BD465DF8047BFE
:101F5000704780B483B000AF786000BF0C37BD46D7
:101F60005DF8047B704780B483B000AF786000BF39
:101F70000C37BD465DF8047B704780B483B000AF7A
:101F8000786000BF0C37BD465DF8047B704780B4B5
:101F900083B000AF786000BF0C37BD465DF8047BAE
:101FA000704780B483B000AF786000BF0C37BD4687
:101FB0005DF8047B704780B483B000AF786000BFE9
:101FC0000C37BD465DF8047B704780B483B000AF2A
:101FD000786000BF0C37BD465DF8047B704780B465
:101FE00083B000AF786000BF0C37BD465DF8047B5E
:101FF000704780B483B000AF786000BF0C37BD4637
:102000005DF8047B704780B483B000AF786000BF98
:102010000C37BD465DF8047B704780B483B000AFD9
:10202000786000BF0C37BD465DF8047B7047000048
:1020300080B485B000AF78607B6803F00703FB6075
:102040000C4BDB68BB60BA684FF6FF031340BB6004
:10205000FB681A02BB68134343F0BF6343F40033C9
:10206000BB60044ABB68D36000BF1437BD465DF84F
:10207000047B704700ED00E080B400AF044BDB68E8
:102080001B0A03F007031846BD465DF8047B704742
:1020900000ED00E080B483B000AF0346FB7197F918
:1020A0000730002B0BDBFB7903F01F02074997F980
:1020B00007305B09012000FA02F241F8232000BF3B
:1020C0000C37BD465DF8047B704700BF00E100E0BF
:1020D00080B483B000AF03463960FB7197F90730D5
:1020E000002B0ADB3B68DAB20C4997F90730120182
:1020F000D2B20B4483F800230AE03B68DAB2084905
:10210000FB7903F00F03043B1201D2B20B441A76A1
:1021100000BF0C37BD465DF8047B704700E100E06E
:1021200000ED00E080B489B000AFF860B9607A607B
:10213000FB6803F00703FB61FB69C3F10703042B92
:1021400028BF0423BB61FB690433062B02D9FB695A
:10215000033B00E000237B614FF0FF32BB6902FAD2
:1021600003F3DA43BB681A407B699A404FF0FF31B2
:102170007B6901FA03F3D9437B680B40134318468C
:102180002437BD465DF8047B7047000080B582B0FF
:1021900000AF78607B68013BB3F1807F01D30123FE
:1021A0000FE00A4A7B68013B53600F214FF0FF307C
:1021B000FFF78EFF054B00229A60044B07221A603E
:1021C000002318460837BD4680BD00BF10E000E080
:1021D00080B582B000AF78607868FFF729FF00BF54
:1021E0000837BD4680BD80B586B000AF0346B960F4
:1021F0007A60FB7300237B61FFF73EFF78617A68AA
:10220000B9687869FFF78EFF024697F90F301146DB
:102210001846FFF75DFF00BF1837BD4680BD80B58B
:1022200082B000AF0346FB7197F907301846FFF7FD
:1022300031FF00BF0837BD4680BD80B582B000AF1A
:1022400078607868FFF7A2FF034618460837BD4656
:1022500080BD80B584B000AF78607B689B6DFB600B
:10226000FFF72AF8B8607B6893F83530DBB2022BB1
:1022700008D07B6880225A657B68002283F834206E
:10228000012352E07B681B681A687B681B6822F098
:1022900016021A607B681B685A697B681B6822F00B
:1022A00080025A617B681B6C002B03D17B689B6C9E
:1022B000002B07D07B681B681A687B681B6822F0BC
:1022C00008021A607B681B681A687B681B6822F02A
:1022D00001021A6013E0FEF7EFFF0246BB68D31A53
:1022E000052B0CD97B6820225A657B68032283F872
:1022F00035207B68002283F83420032315E07B68B7
:102300001B681B6803F00103002BE4D17B68DB6DC5
:102310003F229A40FB689A607B68012283F835204F
:102320007B68002283F83420002318461037BD460E
:1023300080BD80B483B000AF78607B6893F835309F
:10234000DBB2022B04D07B6880225A6501230CE0AB
:102350007B68052283F835207B681B681A687B68D8
:102360001B6822F001021A60002318460C37BD4694
:102370005DF8047B7047000080B489B000AF7860DE
:10238000396000237B6100233B610023BB61002394
:10239000FB616BE10122FB6902FA03F37B613B689D
:1023A0001B687A6913403B613A697B699A4240F045
:1023B0005A813B685B6803F00303012B05D03B683F
:1023C0005B6803F00303022B30D17B689B68BB6121
:1023D000FB695B00032202FA03F3DB43BA69134093
:1023E000BB613B68DA68FB695B0002FA03F3BA6918
:1023F0001343BB617B68BA699A607B685B68BB61A9
:102400000122FB6902FA03F3DB43BA691340BB61A3
:102410003B685B681B0903F00102FB6902FA03F3E6
:10242000BA691343BB617B68BA695A603B685B68F1
:1024300003F00303032B17D07B68DB68BB61FB69E8
:102440005B00032202FA03F3DB43BA691340BB616A
:102450003B689A68FB695B0002FA03F3BA691343AD
:10246000BB617B68BA69DA603B685B6803F00303B1
:10247000022B23D1FB69DA087B68083253F822303B
:10248000BB61FB6903F007039B000F2202FA03F311
:10249000DB43BA691340BB613B681A69FB6903F00F
:1024A00007039B0002FA03F3BA691343BB61FB699C
:1024B000DA087B680832B96943F822107B681B6828
:1024C000BB61FB695B00032202FA03F3DB43BA69D9
:1024D0001340BB613B685B6803F00302FB695B0070
:1024E00002FA03F3BA691343BB617B68BA691A60E5
:1024F0003B685B6803F44033002B00F0B48000239A
:10250000FB60604B5B6C5F4A43F4804353645D4BFC
:102510005B6C03F48043FB60FB685B4AFB699B08D0
:10252000023352F82330BB61FB6903F003039B00C5
:102530000F2202FA03F3DB43BA691340BB617B68E5
:10254000524A93422BD07B68514A934225D07B68F4
:10255000504A93421FD07B684F4A934219D07B6800
:102560004E4A934213D07B684D4A93420DD07B680C
:102570004C4A934207D07B684B4A934201D10723D0
:102580000EE008230CE006230AE0052308E00423FC
:1025900006E0032304E0022302E0012300E000231D
:1025A000FA6902F0030292009340BA691343BB61D7
:1025B0003549FB699B080233BA6941F823203B4B3C
:1025C0009B68BB613B69DB43BA691340BB613B68F5
:1025D0005B6803F48013002B03D0BA693B69134393
:1025E000BB61324ABB699360304BDB68BB613B69BE
:1025F000DB43BA691340BB613B685B6803F40013BB
:10260000002B03D0BA693B691343BB61274ABB69FE
:10261000D360264B5B68BB613B69DB43BA691340FF
:10262000BB613B685B6803F40033002B03D0BA69DD
:102630003B691343BB611D4ABB6953601B4B1B685D
:10264000BB613B69DB43BA691340BB613B685B68B4
:1026500003F48033002B03D0BA693B691343BB6199
:10266000124ABB691360FB690133FB61FB690F2BE5
:102670007FF690AE00BF00BF2437BD465DF8047BF7
:10268000704700BF0038024000380140000002409F
:102690000004024000080240000C0240001002400A
:1026A0000014024000180240001C0240003C01409F
:1026B00080B485B000AF78600B467B807B681A6978
:1026C0007B881340002B02D00123FB7301E0002321
:1026D000FB73FB7B18461437BD465DF8047B7047DF
:1026E00080B483B000AF78600B467B8013467B706C
:1026F0007B78002B03D07A887B689A6103E07B8823
:102700001A047B689A6100BF0C37BD465DF8047BF4
:10271000704780B485B000AF78600B467B807B68E3
:102720005B69FB607A88FB6813401A04FB68D94335
:102730007B880B401A437B689A6100BF1437BD4603
:102740005DF8047B7047000080B582B000AF03469F
:10275000FB80084B5A69FB881340002B06D0054AC2
:10276000FB885361FB881846FEF7B8FA00BF0837AC
:10277000BD4680BD003C014080B586B000AF7860AA
:102780007B68002B01D1012367E27B681B6803F0A3
:102790000103002B75D0884B9B6803F00C03042BBE
:1027A0000CD0854B9B6803F00C03082B12D1824B95
:1027B0005B6803F48003B3F5800F0BD17E4B1B687D
:1027C00003F40033002B5BD07B685B68002B57D190
:1027D000012342E27B685B68B3F5803F06D1764B0C
:1027E0001B68754A43F4803313601DE07B685B68A7
:1027F000B3F5A02F0CD1704B1B686F4A43F48023B4
:1028000013606D4B1B686C4A43F4803313600BE01C
:10281000694B1B68684A23F480331360664B1B685E
:10282000654A23F4802313607B685B68002B13D018
:10283000FEF742FD386108E0FEF73EFD02463B69C7
:10284000D31A642B01D9032307E25B4B1B6803F403
:102850000033002BF0D014E0FEF72EFD386108E0C5
:10286000FEF72AFD02463B69D31A642B01D90323E4
:10287000F3E1514B1B6803F40033002BF0D100E06F
:1028800000BF7B681B6803F00203002B63D04A4B38
:102890009B6803F00C03002B0BD0474B9B6803F0A5
:1028A0000C03082B1CD1444B5B6803F48003002B02
:1028B00016D1414B1B6803F00203002B05D07B6847
:1028C000DB68012B01D00123C7E13B4B1B6823F0E0
:1028D000F8027B681B69DB00374913430B603AE061
:1028E0007B68DB68002B20D0344B01221A60FEF796
:1028F000E3FC386108E0FEF7DFFC02463B69D31ACF
:10290000022B01D90323A8E12B4B1B6803F0020320
:10291000002BF0D0284B1B6823F0F8027B681B6962
:10292000DB00254913430B6015E0244B00221A609D
:10293000FEF7C2FC386108E0FEF7BEFC02463B69C8
:10294000D31A022B01D9032387E11B4B1B6803F029
:102950000203002BF0D17B681B6803F00803002BF7
:1029600036D07B685B69002B16D0154B01221A60AC
:10297000FEF7A2FC386108E0FEF79EFC02463B69C8
:10298000D31A022B01D9032367E10B4B5B6F03F0D2
:102990000203002BF0D01BE0094B00221A60FEF767
:1029A0008BFC38610EE0FEF787FC02463B69D31AC8
:1029B000022B07D9032350E10038024000004742B0
:1029C000800E4742884B5B6F03F00203002BEAD175
:1029D0007B681B6803F00403002B00F09780002342
:1029E000FB75814B1B6C03F08053002B0FD1002330
:1029F000BB607D4B1B6C7C4A43F0805313647A4B65
:102A00001B6C03F08053BB60BB680123FB75774BE5
:102A10001B6803F48073002B18D1744B1B68734A36
:102A200043F480731360FEF747FC386108E0FEF75B
:102A300043FC02463B69D31A022B01D903230CE164
:102A40006A4B1B6803F48073002BF0D07B689B6893
:102A5000012B06D1644B1B6F634A43F001031367DC
:102A60001CE07B689B68052B0CD15F4B1B6F5E4A9B
:102A700043F0040313675C4B1B6F5B4A43F0010395
:102A800013670BE0584B1B6F574A23F00103136782
:102A9000554B1B6F544A23F0040313677B689B68F4
:102AA000002B15D0FEF708FC38610AE0FEF704FCA5
:102AB00002463B69D31A41F28832934201D903237B
:102AC000CBE0494B1B6F03F00203002BEED014E068
:102AD000FEF7F2FB38610AE0FEF7EEFB02463B69C7
:102AE000D31A41F28832934201D90323B5E03E4B19
:102AF0001B6F03F00203002BEED1FB7D012B05D1F0
:102B0000394B1B6C384A23F0805313647B689B69F4
:102B1000002B00F0A180344B9B6803F00C03082BC2
:102B20005CD07B689B69022B41D1314B00221A603B
:102B3000FEF7C2FB386108E0FEF7BEFB02463B69C8
:102B4000D31A022B01D9032387E0274B1B6803F01C
:102B50000073002BF0D17B68DA697B681B6A1A432B
:102B60007B685B6A9B011A437B689B6A5B08013B3D
:102B70001B041A437B68DB6A1B061B4913434B602B
:102B80001B4B01221A60FEF797FB386108E0FEF745
:102B900093FB02463B69D31A022B01D903235CE065
:102BA000114B1B6803F00073002BF0D054E0104B66
:102BB00000221A60FEF780FB386108E0FEF77CFB1C
:102BC00002463B69D31A022B01D9032345E0064B89
:102BD0001B6803F00073002BF0D13DE07B689B691C
:102BE000012B07D1012338E000380240007000407B
:102BF000600047421B4B5B68FB607B689B69012B55
:102C000028D0FB6803F480027B68DB699A4221D1FB
:102C1000FB6803F03F027B681B6A9A421AD1FA688C
:102C200047F6C07313407A68526A9201934211D1F9
:102C3000FB6803F440327B689B6A5B08013B1B0422
:102C40009A4207D1FB6803F070627B68DB6A1B065F
:102C50009A4201D0012300E0002318461837BD46F0
:102C600080BD00BF0038024080B584B000AF7860FE
:102C700039607B68002B01D10123CCE0684B1B68D5
:102C800003F007033A689A420CD9654B3A68D2B20E
:102C90001A70634B1B6803F007033A689A4201D02D
:102CA0000123B8E07B681B6803F00203002B20D0EF
:102CB0007B681B6803F00403002B05D0594B9B680D
:102CC000584A43F4E05393607B681B6803F00803A1
:102CD000002B05D0534B9B68524A43F460439360EA
:102CE000504B9B6823F0F0027B689B684D4913436F
:102CF0008B607B681B6803F00103002B44D07B686A
:102D00005B68012B07D1474B1B6803F40033002B92
:102D100019D101237FE07B685B68022B03D07B68BD
:102D20005B68032B07D13F4B1B6803F00073002B3C
:102D300009D101236FE03B4B1B6803F00203002B1A
:102D400001D1012367E0374B9B6823F003027B68C6
:102D50005B68344913438B60FEF7AEFAF8600AE013
:102D6000FEF7AAFA0246FB68D31A41F28832934270
:102D700001D903234FE02B4B9B6803F00C027B68C7
:102D80005B689B009A42EBD1254B1B6803F007035D
:102D90003A689A420CD2224B3A68D2B21A70204B4F
:102DA0001B6803F007033A689A4201D0012332E01E
:102DB0007B681B6803F00403002B08D0194B9B6849
:102DC00023F4E0527B68DB68164913438B607B6811
:102DD0001B6803F00803002B09D0124B9B6823F4F7
:102DE00060427B681B69DB000E4913438B6000F077
:102DF00021F802460B4B9B681B0903F00F030A499D
:102E0000CB5C22FA03F3094A1360094B1B6818468E
:102E1000FEF70EFA002318461037BD4680BD00BFEE
:102E2000003C024000380240BC4F0008480000202F
:102E30004C0000202DE9B04F90B000AF00237B6321
:102E40000023FB6300233B630023BB63594B9B6858
:102E500003F00C03082B0DD0082B00F2A180002BEF
:102E600002D0042B03D09BE0534BBB639BE0534B3E
:102E7000BB6398E04F4B5B6803F03F037B634D4BB4
:102E80005B6803F48003002B28D04A4B5B689B09E6
:102E900000223B627A623B6AC3F308000021474B81
:102EA00003FB01F2002300FB03F31344434AA0FB9E
:102EB0000212FA620A46BA62FA6A1344FB627B6B38
:102EC0000022BB61FA61D7E90623D7E90A01FDF7C1
:102ED000CFF902460B461346FB6353E0354B5B6864
:102EE0009B0900223B617A613B69C3F3080A4FF0FA
:102EF000000B52465B464FF000004FF000015901B5
:102F000041EAD261500102460B46B2EB0A0863EB7C
:102F10000B094FF000024FF000034FEA891343EA18
:102F200098634FEA8812B2EB080463EB09054FF08F
:102F300000024FF00003EB0043EA5473E200144632
:102F40001D4614EB0A033B6045EB0B037B604FF01F
:102F500000024FF00003D7E9004529468B022146C5
:102F600043EA915321468A02104619467B6B0022A0
:102F7000BB60FA60D7E90223FDF77AF902460B46F7
:102F80001346FB630B4B5B681B0C03F0030301331D
:102F90005B003B63FA6B3B6BB2FBF3F3BB6302E09A
:102FA000054BBB6300BFBB6B18464037BD46BDE851
:102FB000B08F00BF003802400024F40040787D014B
:102FC00080B400AF034B1B681846BD465DF8047B18
:102FD000704700BF4800002080B500AFFFF7F0FF4A
:102FE0000246054B9B689B0A03F007030349CB5C31
:102FF00022FA03F3184680BD00380240CC4F000887
:1030000080B500AFFFF7DCFF0246054B9B685B0B0A
:1030100003F007030349CB5C22FA03F3184680BD93
:1030200000380240CC4F000880B582B000AF786015
:103030007B68002B01D1012341E07B6893F83D3090
:10304000DBB2002B06D17B68002283F83C20786835
:10305000FDF76AFF7B68022283F83D207B681A68CF
:103060007B6804331946104600F0B6F97B680122EC
:1030700083F846207B68012283F83E207B6801228A
:1030800083F83F207B68012283F840207B6801227F
:1030900083F841207B68012283F842207B6801226B
:1030A00083F843207B68012283F844207B68012257
:1030B00083F845207B68012283F83D2000231846D1
:1030C0000837BD4680BD000080B485B000AF786091
:1030D0007B6893F83D30DBB2012B01D001234EE039
:1030E0007B68022283F83D207B681B68DA687B6876
:1030F0001B6842F00102DA607B681B68234A934236
:1031000022D07B681B68B3F1804F1DD07B681B68A1
:103110001F4A934218D07B681B681E4A934213D003
:103120007B681B681C4A93420ED07B681B681B4A55
:10313000934209D07B681B68194A934204D07B688C
:103140001B68184A934211D17B681B689B6803F087
:103150000703FB60FB68062B10D07B681B681A68AE
:103160007B681B6842F001021A6007E07B681B68FD
:103170001A687B681B6842F001021A600023184637
:103180001437BD465DF8047B704700BF0000014066
:103190000004004000080040000C00400004014012
:1031A000004001400018004080B584B000AF786056
:1031B0007B681B68DB68FB607B681B681B69BB6006
:1031C000BB6803F00203002B20D0FB6803F002036E
:1031D000002B1BD07B681B686FF002021A617B68B2
:1031E00001221A777B681B689B6903F00303002B9D
:1031F00003D0786800F0D2F805E0786800F0C4F8F1
:10320000786800F0D5F87B6800221A77BB6803F075
:103210000403002B20D0FB6803F00403002B1BD019
:103220007B681B686FF004021A617B6802221A77C0
:103230007B681B689B6903F44073002B03D078689C
:1032400000F0ACF805E0786800F09EF8786800F0CF
:10325000AFF87B6800221A77BB6803F00803002BE5
:1032600020D0FB6803F00803002B1BD07B681B6891
:103270006FF008021A617B6804221A777B681B686A
:10328000DB6903F00303002B03D0786800F086F8B5
:1032900005E0786800F078F8786800F089F87B68D5
:1032A00000221A77BB6803F01003002B20D0FB68C4
:1032B00003F01003002B1BD07B681B686FF010021B
:1032C0001A617B6808221A777B681B68DB6903F444
:1032D0004073002B03D0786800F060F805E0786850
:1032E00000F052F8786800F063F87B6800221A77E3
:1032F000BB6803F00103002B0CD0FB6803F0010353
:10330000002B07D07B681B686FF001021A61786898
:10331000FDF768FDBB6803F08003002B0CD0FB6851
:1033200003F08003002B07D07B681B686FF08002DE
:103330001A61786800F006F9BB6803F04003002BBF
:103340000CD0FB6803F04003002B07D07B681B68A0
:103350006FF040021A61786800F034F8BB6803F03F
:103360002003002B0CD0FB6803F02003002B07D0B8
:103370007B681B686FF020021A61786800F0D8F84B
:1033800000BF1037BD4680BD80B483B000AF786009
:1033900000BF0C37BD465DF8047B704780B483B036
:1033A00000AF786000BF0C37BD465DF8047B704706
:1033B00080B483B000AF786000BF0C37BD465DF8C5
:1033C000047B704780B483B000AF786000BF0C37D7
:1033D000BD465DF8047B704780B485B000AF78606F
:1033E00039607B681B68FB607B68464A934213D058
:1033F0007B68B3F1804F0FD07B68434A93420BD078
:103400007B68424A934207D07B68414A934203D08B
:103410007B68404A934208D1FB6823F07003FB604D
:103420003B685B68FA681343FB607B68354A9342EC
:103430002BD07B68B3F1804F27D07B68324A934210
:1034400023D07B68314A93421FD07B68304A934235
:103450001BD07B682F4A934217D07B682E4A934239
:1034600013D07B682D4A93420FD07B682C4A93423D
:103470000BD07B682B4A934207D07B682A4A934241
:1034800003D07B68294A934208D1FB6823F4407338
:10349000FB603B68DB68FA681343FB60FB6823F062
:1034A00080023B685B691343FB607B68FA681A60C3
:1034B0003B689A687B68DA623B681A687B689A6244
:1034C0007B68104A934203D07B68124A934203D12F
:1034D0003B681A697B681A637B6801225A617B68C2
:1034E0001B6903F00103012B05D17B681B6923F0E5
:1034F00001027B681A6100BF1437BD465DF8047B8A
:10350000704700BF00000140000400400008004078
:10351000000C004000040140004001400044014014
:103520000048014000180040001C004000200040FE
:1035300080B483B000AF786000BF0C37BD465DF843
:10354000047B704780B483B000AF786000BF0C3755
:10355000BD465DF8047B704780B582B000AF7860EF
:103560007B68002B01D1012342E07B6893F8413056
:10357000DBB2002B06D17B68002283F840207868FC
:10358000FDF718FD7B68242283F841207B681B68C7
:10359000DA687B681B6822F40052DA60786800F011
:1035A000BDFD7B681B681A697B681B6822F490422A
:1035B0001A617B681B685A697B681B6822F02A02C3
:1035C0005A617B681B68DA687B681B6842F40052AA
:1035D000DA607B6800225A647B68202283F84120ED
:1035E0007B68202283F842207B6800225A630023F4
:1035F00018460837BD4680BD80B58AB002AFF86076
:10360000B9603B601346FB8000237B61FB6893F845
:103610004130DBB2202B75D1BB68002B02D0FB8878
:10362000002B01D101236EE0FB6800225A64FB6885
:10363000212283F84120FDF73FFE7861FB68FA887C
:103640009A84FB68FA88DA84FB689B68B3F5805F2C
:1036500008D1FB681B69002B04D10023FB61BB6808
:10366000BB6103E0BB68FB610023BB612EE03B68EC
:1036700000937B6900228021F86800F01FFB03465D
:10368000002B05D0FB68202283F8412003233AE079
:10369000FB69002B0BD1BB691B881A46FB681B68B2
:1036A000C2F308025A60BB690233BB6107E0FB69E1
:1036B0001A78FB681B685A60FB690133FB61FB6881
:1036C000DB8C9BB2013B9AB2FB68DA84FB68DB8C33
:1036D0009BB2002BCBD13B6800937B690022402139
:1036E000F86800F0EBFA0346002B05D0FB682022B7
:1036F00083F84120032306E0FB68202283F8412061
:10370000002300E0022318462037BD4680BD80B567
:1037100084B000AFF860B9601346FB80FB6893F893
:103720004230DBB2202B12D1BB68002B02D0FB88C9
:10373000002B01D101230BE0FB6800221A63FB88F8
:103740001A46B968F86800F012FB034600E002234D
:1037500018461037BD4680BD80B5BAB000AF78605E
:103760007B681B681B68C7F8E4307B681B68DB68F4
:10377000C7F8E0307B681B685B69C7F8DC30002362
:10378000C7F8D8300023C7F8D430D7F8E43003F0B6
:103790000F03C7F8D830D7F8D830002B0FD1D7F89F
:1037A000E43003F02003002B09D0D7F8E03003F019
:1037B0002003002B03D0786800F0F2FB5BE2D7F81F
:1037C000D830002B00F0DE80D7F8DC3003F00103A6
:1037D000002B06D1D7F8E03003F49073002B00F0F3
:1037E000D180D7F8E43003F00103002B0BD0D7F8D9
:1037F000E03003F48073002B05D07B685B6C43F0F2
:1038000001027B685A64D7F8E43003F00403002B0C
:103810000BD0D7F8DC3003F00103002B05D07B6818
:103820005B6C43F002027B685A64D7F8E43003F023
:103830000203002B0BD0D7F8DC3003F00103002B80
:1038400005D07B685B6C43F004027B685A64D7F850
:10385000E43003F00803002B11D0D7F8E03003F078
:103860002003002B05D1D7F8DC3003F00103002B37
:1038700005D07B685B6C43F008027B685A647B6808
:103880005B6C002B00F0F281D7F8E43003F02003EA
:10389000002B08D0D7F8E03003F02003002B02D033
:1038A000786800F07DFB7B681B685B6903F0400370
:1038B000402B0CBF01230023DBB2C7F8D4307B6858
:1038C0005B6C03F00803002B03D1D7F8D430002B36
:1038D0004FD0786800F085FA7B681B685B6903F05D
:1038E0004003402B41D17B681B681433C7F89C30E0
:1038F000D7F89C3053E8003FC7F89830D7F8983095
:1039000023F04003C7F8D0307B681B681433D7F826
:10391000D020C7F8A820C7F8A430D7F8A410D7F84B
:10392000A82041E80023C7F8A030D7F8A030002B2A
:10393000D9D17B68DB6B002B13D07B68DB6B7E4AB5
:103940001A657B68DB6B1846FEF7F3FC0346002B19
:1039500016D07B68DB6B1B6D7A68D26B104698477C
:103960000EE0786800F094F90AE0786800F090F9C9
:1039700006E0786800F08CF97B6800225A6475E1F3
:1039800000BF73E17B681B6B012B40F04F81D7F8C0
:10399000E43003F01003002B00F04881D7F8E0304A
:1039A00003F01003002B00F041810023BB607B6813
:1039B0001B681B68BB607B681B685B68BB60BB687F
:1039C0007B681B685B6903F04003402B40F0B680C6
:1039D0007B68DB6B1B685B68A7F8BE30B7F8BE304E
:1039E000002B00F045817B689B8DB7F8BE209A4282
:1039F00080F03E817B68B7F8BE20DA857B68DB6BA0
:103A0000DB69B3F5807F00F088807B681B680C332E
:103A1000C7F88830D7F8883053E8003FC7F88430BB
:103A2000D7F8843023F48073C7F8B8307B681B68FC
:103A30000C33D7F8B820C7F89420C7F89030D7F8DF
:103A40009010D7F8942041E80023C7F88C30D7F8BD
:103A50008C30002BD9D17B681B6814337B677B6F5C
:103A600053E8003F3B673B6F23F00103C7F8B430D6
:103A70007B681B681433D7F8B420C7F88020FB6735
:103A8000F96FD7F8802041E80023BB67BB6F002B9C
:103A9000E1D17B681B6814333B663B6E53E8003F03
:103AA000FB65FB6D23F04003C7F8B0307B681B68F3
:103AB0001433D7F8B020FA66BB66B96EFA6E41E8E7
:103AC00000237B667B6E002BE3D17B68202283F88A
:103AD00042207B6800221A637B681B680C33FB64FE
:103AE000FB6C53E8003FBB64BB6C23F01003C7F8CA
:103AF000AC307B681B680C33D7F8AC20BA657B65AB
:103B0000796DBA6D41E800233B653B6D002BE3D135
:103B10007B68DB6B1846FEF79CFB7B6802225A63CE
:103B20007B689A8D7B68DB8D9BB2D31A9BB219465A
:103B3000786800F0B7F89BE0A93E00087B689A8D92
:103B40007B68DB8D9BB2D31AA7F8CE307B68DB8D08
:103B50009BB2002B00F08E80B7F8CE30002B00F027
:103B600089807B681B680C33BB63BB6B53E8003FE9
:103B70007B637B6B23F49073C7F8C8307B681B684A
:103B80000C33D7F8C8207A643B64396C7A6C41E80E
:103B90000023FB63FB6B002BE3D17B681B681433B2
:103BA0007B627B6A53E8003F3B623B6A23F0010380
:103BB000C7F8C4307B681B681433D7F8C4203A6355
:103BC000FB62F96A3A6B41E80023BB62BB6A002BD7
:103BD000E3D17B68202283F842207B6800221A63AD
:103BE0007B681B680C333B613B6953E8003FFB601B
:103BF000FB6823F01003C7F8C0307B681B680C33E8
:103C0000D7F8C020FA61BB61B969FA6941E80023BD
:103C10007B617B69002BE3D17B6802225A63B7F892
:103C2000CE301946786800F03DF823E0D7F8E4304C
:103C300003F08003002B09D0D7F8E03003F08003B5
:103C4000002B03D0786800F043F914E0D7F8E43093
:103C500003F04003002B0ED0D7F8E03003F0400310
:103C6000002B08D0786800F083F904E000BF02E080
:103C700000BF00E000BFE837BD4680BD80B483B020
:103C800000AF786000BF0C37BD465DF8047B70471D
:103C900080B483B000AF786000BF0C37BD465DF8DC
:103CA000047B704780B483B000AF78600B467B80A4
:103CB00000BF0C37BD465DF8047B704780B586B009
:103CC00000AFF860B9603B601346FB713BE03B6AB4
:103CD000B3F1FF3F37D0FDF7EFFA02463B68D31A46
:103CE0003A6A9A4202D33B6A002B01D103233AE09D
:103CF000FB681B68DB6803F00403002B23D0BB6860
:103D0000802B20D0BB68402B1DD0FB681B681B6834
:103D100003F00803082B16D100237B61FB681B68A6
:103D20001B687B61FB681B685B687B617B69F8686B
:103D300000F057F8FB6808225A64FB68002283F8F9
:103D4000402001230FE0FB681B681A68BB68134022
:103D5000BA689A420CBF01230023DBB21A46FB79F2
:103D60009A42B4D0002318461837BD4680BD80B4AF
:103D700085B000AFF860B9601346FB80FB68BA6895
:103D80009A62FB68FA889A85FB68FA88DA85FB688C
:103D900000225A64FB68222283F84220FB681B69D8
:103DA000002B07D0FB681B68DA68FB681B6842F4CD
:103DB0008072DA60FB681B685A69FB681B6842F016
:103DC00001025A61FB681B68DA68FB681B6842F0F5
:103DD0002002DA60002318461437BD465DF8047BE4
:103DE000704780B495B000AF78607B681B680C3377
:103DF0007B637B6B53E8003F3B633B6B23F4907327
:103E0000FB647B681B680C33FA6C3A64FB63F96BE8
:103E10003A6C41E80023BB63BB6B002BE5D17B68A8
:103E20001B6814333B623B6A53E8003FFB61FB694C
:103E300023F00103BB647B681B681433BA6CFA621D
:103E4000BB62B96AFA6A41E800237B627B6A002B95
:103E5000E5D17B681B6B012B19D17B681B680C3388
:103E6000FB60FB6853E8003FBB60BB6823F01003B6
:103E70007B647B681B680C337A6CBA617B617969FF
:103E8000BA6941E800233B613B69002BE5D17B68BF
:103E9000202283F842207B6800221A6300BF543737
:103EA000BD465DF8047B704780B584B000AF786094
:103EB0007B689B6BFB60FB680022DA85FB68002255
:103EC000DA84F868FFF7E4FE00BF1037BD4680BD16
:103ED00080B485B000AF78607B6893F84130DBB286
:103EE000212B3ED17B689B68B3F5805F14D17B6842
:103EF0001B69002B10D17B681B6AFB60FB681B8869
:103F00001A467B681B68C2F308025A607B681B6A0A
:103F10009A1C7B681A6208E07B681B6A591C7A68E5
:103F200011621A787B681B685A607B68DB8C9BB2D5
:103F3000013B9BB27A681946D184002B0FD17B6874
:103F40001B68DA687B681B6822F08002DA607B6895
:103F50001B68DA687B681B6842F04002DA60002365
:103F600000E0022318461437BD465DF8047B704715
:103F700080B582B000AF78607B681B68DA687B68C8
:103F80001B6822F04002DA607B68202283F841201F
:103F90007868FFF773FE002318460837BD4680BDDA
:103FA00080B58CB000AF78607B6893F84230DBB2AC
:103FB000222B40F0AE807B689B68B3F5805F17D101
:103FC0007B681B69002B13D10023FB627B689B6A13
:103FD000BB627B681B685B689BB2C3F308039AB241
:103FE000BB6A1A807B689B6A9A1C7B689A6226E08F
:103FF0007B689B6AFB620023BB627B689B68B3F5AE
:10400000805F07D07B689B68002B0AD17B681B69A7
:10401000002B06D17B681B685B68DAB2FB6A1A70FA
:1040200008E07B681B685B68DBB203F07F03DAB2F1
:10403000FB6A1A707B689B6A5A1C7B689A627B6871
:10404000DB8D9BB2013B9BB27A681946D185002B70
:104050005DD17B681B68DA687B681B6822F02002F0
:10406000DA607B681B68DA687B681B6822F4807200
:10407000DA607B681B685A697B681B6822F0010262
:104080005A617B68202283F842207B6800225A63B1
:104090007B681B6B012B35D17B6800221A637B6820
:1040A0001B680C337B617B6953E8003F3B613B69D4
:1040B00023F010037B627B681B680C337A6A3A62D8
:1040C000FB61F9693A6A41E80023BB61BB69002BD7
:1040D000E5D17B681B681B6803F01003102B0AD125
:1040E0000023FB607B681B681B68FB607B681B68A8
:1040F0005B68FB60FB687B689B8D19467868FFF7FF
:10410000D1FD02E07868FCF7CFFD002302E0002338
:1041100000E0022318463037BD4680BD2DE9B04F80
:10412000C0B000AFC7F8F400D7F8F4301B681B69C3
:1041300023F44050D7F8F430D968D7F8F4301A682F
:1041400040EA01031361D7F8F4309A68D7F8F430E5
:104150001B691A43D7F8F4305B691A43D7F8F43077
:10416000DB691343C7F8F830D7F8F4301B68DB6815
:1041700023F4164121F00C01D7F8F4301A68D7F86F
:10418000F8300B43D360D7F8F4301B685B6923F435
:104190004070D7F8F4309969D7F8F4301A6840EADB
:1041A00001035361D7F8F4301A688F4B9A4205D057
:1041B000D7F8F4301A688D4B9A4204D1FEF720FFED
:1041C000C7F8FC0003E0FEF707FFC7F8FC00D7F8CC
:1041D000F430DB69B3F5004F40F00C81D7F8FC30C8
:1041E0000022C7F8E830C7F8EC20D7E93A45224664
:1041F0002B469118B9655B41FB65D7E9162321462B
:1042000012EB0108294643EB01094FF000024FF081
:1042100000034FEAC90343EA58734FEAC8029046C5
:104220009946234618EB0303C7F8E0302B4649EBC9
:104230000303C7F8E430D7F8F4305B680022C7F80E
:10424000D830C7F8DC20D7E936120B46DB183B65BF
:10425000134642EB03037B65D7E91423D7E9380102
:10426000FCF706F802460B46614BA3FB02235B09F1
:104270001C01D7F8FC300022C7F8D030C7F8D42092
:10428000D7E9348942464B469118B9645B41FB64D7
:10429000D7E91223414612EB010A494643EB010BD1
:1042A0004FF000024FF000034FEACB0343EA5A738A
:1042B0004FEACA0292469B4643461AEB0303C7F8ED
:1042C000C8304B464BEB0303C7F8CC30D7F8F4307B
:1042D0005B680022C7F8C030C7F8C420D7E93012A5
:1042E0000B46DB183B64134642EB03037B64D7E9C0
:1042F0001023D7E93201FBF7BBFF02460B461146FC
:104300003B4BA3FB01235B09642202FB03F3CB1AA3
:10431000DB0003F13202364BA3FB02235B095B0097
:1043200003F4F8731C44D7F8FC300022C7F8B83007
:10433000C7F8BC20D7E92E8942464B469118B9638D
:104340005B41FB63D7E90E23414651183963494667
:104350004B417B634FF000024FF00003D7E90CABF9
:104360005946CB00514643EA51735146CA001046A4
:104370001946034642469B18C7F8B0304B460A46DA
:1043800042EB0303C7F8B430D7F8F4305B6800227F
:10439000C7F8A830C7F8AC20D7E92A120B46DB18BB
:1043A000BB62134642EB0303FB62D7E90A23D7E95A
:1043B0002C01FBF75DFF02460B460D4BA3FB0213DE
:1043C0005B09642101FB03F3D31ADB003233084A93
:1043D000A2FB03235B0903F00702D7F8F4301B6844
:1043E00022449A6006E100BF001001400014014021
:1043F0001F85EB51D7F8FC300022C7F8A030C7F872
:10440000A420D7E9288942464B46911839625B417E
:104410007B62D7E9082341465418494643EB01051E
:104420004FF000024FF00003EB0043EA5473E20048
:1044300014461D464346E318C7F898304B4645EBF3
:104440000303C7F89C30D7F8F4305B680022C7F844
:104450009030C7F894204FF000024FF00003D7E9E6
:10446000244529468B00214643EA917321468A0060
:10447000D7E92601FBF7FCFE02460B46604BA3FB87
:1044800002235B091C01D7F8FC300022C7F88830F2
:10449000C7F88C20D7E9228942464B469118B9616A
:1044A0005B41FB61D7E90623414651183961494612
:1044B0004B417B614FF000024FF00003D7E904ABA2
:1044C0005946CB00514643EA51735146CA00104643
:1044D0001946034642469B18C7F880304B460A46A9
:1044E00042EB0303C7F88430D7F8F4305B6800224E
:1044F000BB67FA674FF000024FF00003D7E91E894F
:1045000049468B00414643EA917341468A00D7E908
:104510002001FBF7ADFE02460B461146384BA3FBCC
:1045200001235B09642202FB03F3CB1A1B01323324
:10453000334AA2FB03235B0903F0F0031C44D7F8C2
:10454000FC3000223B677A67D7E91C8942464B461C
:104550009118B9605B41FB60D7E9022341465118CD
:10456000396049464B417B604FF000024FF0000339
:10457000D7E900AB5946CB00514643EA5173514647
:10458000CA0010461946034642469B18BB664B4676
:104590000A4642EB0303FB66D7F8F4305B6800225F
:1045A0003B667A664FF000024FF00003D7E91889A6
:1045B00049468B00414643EA917341468A00D7E958
:1045C0001A01FBF755FE02460B460D4BA3FB0213E7
:1045D0005B09642101FB03F3D31A1B013233084A40
:1045E000A2FB03235B0903F00F02D7F8F4301B682A
:1045F00022449A6000BF07F58077BD46BDE8B08FC2
:104600001F85EB510EB400B59CB01DAB0290069017
:104610006FF00041094807910491094953F8042BB0
:1046200005910068019302A900F092F9029B002213
:104630001A701CB05DF804EB03B07047A0000020B6
:104640000802FFFF02440346934200D1704703F87B
:10465000011BF9E7014B1868704700BFA00000205C
:1046600070B50D4D0D4C641BA4100026A64209D157
:104670000B4D0C4C00F06AFC641BA4100026A642F3
:1046800005D170BD55F8043B98470136EEE755F863
:10469000043B98470136F2E710500008105000081C
:1046A00010500008145000087047704737B50029B3
:1046B00044D051F8043C0190002BA1F10404B8BF90
:1046C000E41800F0DFF81E4A0198136833B96360FC
:1046D000146003B0BDE8304000F0DAB8A34208D956
:1046E000256861198B4201BF19685B68491921600F
:1046F000EDE71A465B680BB1A342FAD91168551869
:10470000A5420BD1246821445418A3421160E0D182
:104710001C685B6853600C441460DAE702D90C2310
:104720000360D6E7256861198B4204BF19685B688E
:10473000636004BF491921605460CAE703B030BD0B
:10474000A003002070B50E4E0C463168054611B925
:1047500000F0A6FB30602146284600F0A1FB431C78
:104760000AD0C41C24F00304A04207D0211A284612
:1047700000F096FB013001D14FF0FF34204670BDB0
:10478000A40300202DE9F843CD1C25F003050835CE
:104790000C2D38BF0C25002D074601DBA94205D999
:1047A0000C233B6000263046BDE8F883DFF8D0805C
:1047B00000F068F8D8F800301C465CBB2946384643
:1047C000FFF7C0FF431C044655D1D8F800402646E9
:1047D000002E45D1002C48D023683146384604EBE2
:1047E000030900F05DFB81453FD121686D1A294620
:1047F0003846FFF7A7FF013037D023682B442360EA
:10480000D8F80030002B38D05A68A2422BD10022B1
:104810005A600FE02268521B1FD40B2A17D9611966
:10482000A342256018BF5960636808BFC8F800102C
:1048300062514B60384604F10B0600F029F826F06F
:104840000706231DF21AAED09B1BA350ABE7A34271
:104850006268DDD1C8F80020ECE723466468ACE765
:1048600034467668B4E71346CCE70C233B60384601
:1048700000F00EF897E72560DCE75B60FFDE00BF25
:10488000A00300200148FFF70FBF00BF9C030020DA
:104890000148FFF70ABF00BF9C0300202DE9F04745
:1048A0008E681F46BE420B6882460C4690462CD846
:1048B0008A8912F4906F26D06569096905EB450570
:1048C000A3EB010905EBD5757B1C4B446D109D4294
:1048D00038BF1D46530527D52946FFF753FF064627
:1048E00060B321694A4600F0EBFAA38923F4906390
:1048F00043F08003A381266165614E44A5EB090561
:104900002660A5603E46BE4200D93E46206832463B
:10491000414600F0ABFAA3689B1BA36023683344B5
:1049200023600020BDE8F0872A4600F0D7FA06464B
:104930000028E0D121695046FFF7B8FE0C23CAF8E1
:104940000030A38943F04003A3814FF0FF30E9E733
:104950002DE9F04F98468B891B069DB007460D4602
:1049600014460ED50B6963B94021FFF70BFF286091
:10497000286120B90C233B604FF0FF30D0E040238A
:104980006B610023099320238DF82930CDF80C802A
:104990003023DFF8A4818DF82A304FF00109234637
:1049A0009A4613F8012B0AB1252AF9D1BAEB040B68
:1049B0000BD05B46224629463846FFF76FFF013091
:1049C00000F0A980099A5A4409929AF80030002B05
:1049D00000F0A18000234FF0FF32CDE905230AF15A
:1049E000010A049307938DF853301A935446052215
:1049F00014F8011B5048FBF7EBFB049AD8B9D0061A
:104A000044BF20238DF85330110744BF2B238DF86A
:104A100053309AF800302A2B15D0079A54460020BC
:104A20004FF00A0C214611F8013B303B092B4DD9C0
:104A3000B0B1079214E0A0EB080309FA03F31343A3
:104A40000493A246D2E7039B191D1B680391002B18
:104A5000BBBF5B4242F0020207930793B8BF0492C8
:104A600023782E2B0CD163782A2B34D1039B1A1D6B
:104A70001B680392002BB8BF4FF0FF33023405933D
:104A8000DFF8C4A0217803225046FBF7A1FB38B120
:104A9000049BA0EB0A00402282401343013404939C
:104AA00014F8011B25488DF828100622FBF790FB0F
:104AB000002838D0224B1BBB039B073323F007038E
:104AC00008330393099B3344099368E70CFB0232D4
:104AD0000C460120A6E700230134059319464FF048
:104AE0000A0C204610F8012B303A092A03D9002B72
:104AF000C6D00591C4E70CFB012104460123F0E771
:104B000003AB00932A460F4B04A93846AFF300804D
:104B1000421C0646D6D1AB895B063FF52DAF0998FE
:104B20001DB0BDE8F08F03AB00932A46054B04A9E6
:104B3000384600F079F8EBE7D44F0008DE4F000864
:104B4000000000009D480008DA4F00082DE9F047FA
:104B5000164699468A680B69DDF820809342B8BFF3
:104B60001346336091F8432007460C460AB10133DF
:104B700033602368990642BF336802333360256887
:104B800015F0060506D104F1190AE36832689B1A8C
:104B9000AB4226DC94F84320131E226818BF012381
:104BA00092062BD404F1430249463846C0470130EF
:104BB0001ED02368226903F00603042B02BFE568B8
:104BC0003368ED1AA3680CBF25EAE575002593420A
:104BD000C4BF9B1AED1800261A34B5421AD1002022
:104BE00008E00123524649463846C047013003D108
:104BF0004FF0FF30BDE8F0870135C6E7E1185A1CD9
:104C0000302081F84300224494F8451082F8431084
:104C10000233C7E70123224649463846C0470130E0
:104C2000E6D00136D9E700002DE9FF470F7E0C9D45
:104C3000782F914680460C469A4601F1430207D8E8
:104C4000622F0AD8002F00F0D480582F00F0C080C7
:104C500004F1420584F842703AE0A7F16303152B92
:104C6000F6D801A151F823F0C14C0008D54C00083A
:104C7000514C0008514C0008514C0008514C0008A0
:104C8000D54C0008514C0008514C0008514C00080C
:104C9000514C0008D94D0008014D0008934D000803
:104CA000514C0008514C0008FB4D0008514C0008C5
:104CB000014D0008514C0008514C00089B4D000864
:104CC0002B681A1D1B682A6004F1420584F84230E3
:104CD00001239FE020682B68070603F10401296087
:104CE00001D51E6803E04606FBD5B3F90060002E2F
:104CF00003DA2D23764284F843305A480A2312E01F
:104D00002B682068191D2960050601D51E6802E080
:104D10004106FBD51E8853486F2F0CBF08230A237A
:104D2000002184F843106568A560002DA2BF2168AA
:104D300021F0040121600EB9002D4BD01546B6FBC1
:104D4000F3F103FB1167C75D05F8017D3746BB42F0
:104D50000E46F4D9082B0BD12368DE0708D523694A
:104D600061689942DEBF302305F8013C05F1FF354B
:104D7000521B2261CDF800A04B4603AA21464046B3
:104D8000FFF7E4FE01304AD14FF0FF3004B0BDE838
:104D9000F087236843F0200323603348782784F8A2
:104DA0004570236829681F0651F8046B02D45F061A
:104DB00048BFB6B2DF0748BF43F02003296048BFB1
:104DC00023601EB9236823F0200323601023A7E784
:104DD0002448E4E71546BDE72B6826686169181D7D
:104DE000286035061B6801D5196002E07006FBD506
:104DF0001980002323611546BCE72B681A1D2A6021
:104E00001D68626800212846FBF7E2F908B1401BE3
:104E1000606063682361002384F84330AAE7236954
:104E20002A4649464046D0470130ADD023689B070B
:104E300013D4E068039B9842B8BF1846A6E7012345
:104E4000324649464046D04701309DD00135E3689F
:104E500003995B1AAB42F2DCEBE7002504F119067B
:104E6000F5E700BFE54F0008F64F0008884210B58F
:104E700001EB020402D98442234607D8431EA14213
:104E800008D011F8012B03F8012FF8E7024401467E
:104E90008A4200D110BD13F8014D02F8014DF7E729
:104EA00038B5064D0023044608462B60FCF72CF964
:104EB000431C02D12B6803B1236038BD9803002046
:104EC0000A44914200F1FF3300D1704710B511F848
:104ED000014B03F8014F9142F9D110BD2DE9F0418A
:104EE000804614460E4621B9BDE8F0411146FFF751
:104EF00049BC2AB9FFF7DAFB25462846BDE8F08110
:104F000000F01BF88442074602D8B4EB500F12D8C9
:104F100021464046FFF736FC05460028EDD0BC424E
:104F20002246314628BF3A46FFF7CAFF314640467F
:104F3000FFF7BCFBE1E73546DFE751F8043C181FFB
:104F4000002BBCBF0B58C01870470000F8B500BF5D
:104F5000F8BC08BC9E467047F8B500BFF8BC08BC5A
:044F60009E467047B2
:104F640020456C2050474E20456E766961646F3A47
:104F740020256C58200000002050474E20526563C5
:104F8400696269646F3A204461746F733A20256CD6
:104F940058202558202558202558202558202558A4
:104FA4002025582025582025580D00003F065B4F2A
:104FB400666D7D077F6F00000000000000000000A8
:104FC40001020304060708090000000001020304AB
:104FD400232D302B2000686C4C00656667454647DE
:104FE4000030313233343536373839414243444561
:104FF40046003031323334353637383961626364D0
:0450040065660000DD
:0850080098B2FF7F01000000D7
:04501000B5010008DE
:0450140091010008FE
:105018000A496E74657272757063696F6E204D61AE
:10502800736976610D0000000A536520656E766924
:105038006F204D73672043414E0D00000A4E6F20CC
:105048007365207075646F20656E76696172206D76
:10505800656E73616A650D000024F400100000009D
:10506800010000000000000060020020C8020020CB
:1050780030030020000000000000000000000000D5
:105088000000000000000000000000000000000018
:105098000000000000000000000000000000000008
:1050A80000000000000000000000000000000000F8
:0450B8005400002080
:040000050800119945
:00000001FF
