:020000040800F2
:1000000000000220551700081116000817160008F6
:100010001D1600082316000829160008000000001D
:100020000000000000000000000000002F16000883
:100030003D160008000000004B1600085916000885
:10004000A5170008A5170008A5170008A5170008A0
:10005000A5170008A5170008A5170008A517000890
:10006000A5170008A5170008A5170008A517000880
:10007000A5170008A5170008A5170008A517000870
:10008000A5170008A5170008A5170008A517000860
:10009000A5170008A5170008A5170008A517000850
:1000A000A5170008A5170008A5170008A517000840
:1000B000A5170008A5170008A5170008A517000830
:1000C000A5170008A5170008A5170008A517000820
:1000D000A517000865160008A5170008A517000851
:1000E00079160008A5170008A5170008A51700082D
:1000F000891600089D160008A5170008A517000816
:10010000A5170008A5170008A5170008A5170008DF
:10011000A5170008A5170008A5170008A5170008CF
:10012000A5170008A5170008A5170008A5170008BF
:10013000A5170008A5170008A5170008A5170008AF
:10014000B1160008A5170008A5170008A517000894
:10015000A5170008A5170008A5170008A51700088F
:10016000A5170008A5170008A5170008A51700087F
:10017000A5170008A5170008A51700080000000033
:08018000A5170008A5170008EF
:1001900010B5054C237833B9044B13B10448AFF3C1
:1001A00000800123237010BDB0000020000000007B
:1001B0009C62000808B5034B1BB103490348AFF329
:1001C000008008BD00000000B40000209C62000810
:1001D00001F0FF01102A2BDB10F0070F08D010F8F8
:1001E000013B013A8B422DD010F0070F42B3F6D1FC
:1001F000F0B441EA012141EA014122F007047FF015
:1002000000070023F0E80256083C85EA010586EA6B
:10021000010685FA47F5A3FA87F586FA47F6A5FAA7
:1002200087F68EB9EED1F0BC01F0FF0102F00702B3
:1002300032B110F8013B013A83EA010313B1F8D15E
:100240000020704701387047002D06BF354603383F
:10025000073815F0010F07D1013015F4807F02BF78
:10026000013015F4C03F0130F0BC0138704700BFC9
:1002700053B94AB9002908BF00281CBF4FF0FF310D
:100280004FF0FF3000F070B9ADF1080C6DE904CE0D
:1002900000F006F8DDF804E0DDE9022304B0704761
:1002A0002DE9F047089E0D4604460F46002B4AD123
:1002B0008A42944665D9B2FA82F343B102FA03FC4A
:1002C000C3F120029F4020FA02F217439C404FEAFC
:1002D0001C4E1FFA8CF5B7FBFEF1220C0EFB1177BA
:1002E00042EA074201FB05F090420AD91CEB0202E8
:1002F00001F1FF3780F01C81904240F219810239F0
:100300006244121AA4B2B2FBFEF00EFB102244EAC1
:10031000024400FB05F5A5420AD91CEB040400F1D8
:10032000FF3280F00781A54240F204816444023824
:1003300040EA0140641B00211EB1DC400023C6E9F5
:100340000043BDE8F0878B4208D9002E00F0ED8015
:100350000021C6E900050846BDE8F087B3FA83F13D
:10036000002949D1AB4202D3824200F2F880841ABC
:1003700065EB030201201746002EE2D0C6E90047D4
:10038000DFE702B9FFDEB2FA82F3002B40F0908083
:100390008A1A4FEA1C471FFA8CFE0121B2FBF7F5BF
:1003A00007FB1520220C42EA00420EFB05F09042AA
:1003B00008D91CEB020205F1FF3802D2904200F28C
:1003C000CB804546121AA4B2B2FBF7F007FB10220D
:1003D00044EA02440EFB00FEA64508D91CEB0404C7
:1003E00000F1FF3202D2A64500F2BB801046A4EB1A
:1003F0000E0440EA05409FE7C1F120078B4022FA36
:1004000007FC4CEA030C05FA01F420FA07F3FD405F
:100410004FEA1C492343B5FBF9F81FFA8CFE09FB90
:1004200018551C0C44EA054408FB0EF5A54202FAD7
:1004300001F200FA01F00BD91CEB040408F1FF3AB9
:1004400080F08880A54240F28580A8F102086444CB
:10045000641B9DB2B4FBF9F309FB134445EA044461
:1004600003FB0EFEA64508D91CEB040403F1FF357F
:100470006CD2A6456AD9023B644443EA0843A3FB15
:100480000295A4EB0E04AC42C846AE4656D353D0F8
:1004900056B1B0EB080264EB0E0404FA07F7CA4049
:1004A000CC401743C6E9007418460021BDE8F08728
:1004B000C3F1200102FA03FC20FA01F225FA01F14E
:1004C0009D402A434FEA1C471FFA8CFEB1FBF7F010
:1004D00007FB1015110C41EA054100FB0EF58D429A
:1004E00004FA03F408D91CEB010100F1FF382FD204
:1004F0008D422DD902386144491B92B2B1FBF7F508
:1005000007FB151142EA014205FB0EF1914208D9A1
:100510001CEB020205F1FF3816D2914214D9023DBC
:100520006244521A45EA004138E73146304608E74E
:100530003946E6E61046FBE64845A9D2B9EB020883
:1005400065EB0C0E013BA3E74546EAE72B4694E733
:100550004046D1E7D0467BE7023D624432E7084699
:100560000AE76444023842E7704700BF80B582B0B2
:1005700000AF7860074B084A0021786801F0BEFCA4
:100580004FF40051054802F0A2FB00BF0837BD46FA
:1005900080BD00BF1C030020E802002000100240C4
:1005A000F0B597B008AF07F150037B6101F0FCF89C
:1005B00000F068F900F03EFC00F012FC00F0CAF90F
:1005C00000F0C6FB00F0E8FB00F02AFA00F0C8FAE1
:1005D00000F048FB954801F059FB0221934801F0D7
:1005E000AFFD04229249934804F038FA924803F090
:1005F00049F8924803F046F801221021904802F091
:100600004DFB012220218E4802F048FB01224021AF
:100610008B4802F043FB002387F83730894A07F103
:10062000080307CA03C31A800021874803F0F4F8BF
:100630000021864803F0F0F80421844803F0ECF828
:100640000C21834803F0E8F800217F4803F06AFF9B
:1006500064237B6264233B62C823FB616423BB6128
:1006600000233B6309E0784B1B683A6B5A630A200E
:1006700001F00CF93B6B0A333B633B6BB3F57A7FBC
:10068000F1DD4FF47A73FB6209E06F4B1B68FA6A85
:100690005A630A2001F0FAF8FB6A0A3BFB62FB6A24
:1006A000002BF2DA694B1B683A6A5A63674B1B6886
:1006B000FA699A63664B1B68BA691A6497F837300F
:1006C000013387F8373097F83730092B02D90023E8
:1006D00087F837305F4B26221A705E4B5C225A70C7
:1006E0005C4B03229A705B4B0022DA70594BFF225D
:1006F0001A71584BFF225A71564BFF229A71554B73
:10070000FF22DA714FF48041534802F0E0FA4FF4CF
:100710000061514802F0AAFA0346002B04D04FF4BE
:1007200000514D4802F0D3FA4FF0FF3310229821C8
:10073000404804F008F9494B464A49493B4801F012
:10074000E9FA002387F82B3017E04FF49673122252
:100750004449384804F0F7F897F82B30032B07D1B9
:100760004FF496731B224049324804F0ECF80DE038
:1007700097F82B30013387F82B30384B1B6819461C
:100780002A4801F097FB0346002BDED1344B5B680F
:100790001A463649364805F0DDF8364B5A68364B6E
:1007A0001B789C46344B5B781946334B9B78184634
:1007B000314BDB781C46304B1B791D462E4B5B7949
:1007C0001E462D4B9B797B602B4BDB7906937B6818
:1007D000059304960395029401900091634627497E
:1007E000234805F0B7F8244B00221A70224B002250
:1007F0005A70214B00229A701F4B0022DA701E4B58
:1008000000221A711C4B00225A711B4B00229A7154
:10081000194B0022DA714FF4FA7001F037F8184BD7
:100820001B780133DAB2164B1A7019E7CC0000209E
:10083000A40200205C020020CC0100201402002051
:100840000000024000630008F40000203C0100208A
:100850008401002024030020001002402C0300200B
:1008600004030020180000202C000020B4620008BF
:10087000AC020020E80200201C030020CC6200082B
:10088000A802002080B594B000AF07F12003302209
:100890000021184605F07EF807F10C0300221A60CB
:1008A0005A609A60DA601A610023BB60274B1B6CA8
:1008B000264A43F080531364244B1B6C03F080538F
:1008C000BB60BB6800237B60214B1B68204A43F45C
:1008D000804313601E4B1B6803F480437B607B687E
:1008E00002233B620123FB6210233B630223BB63B1
:1008F0000023FB6308233B6450237B640223BB6417
:100900000423FB6407F12003184602F013FA0346A0
:10091000002B01D000F08CFC0F23FB6002233B6115
:1009200000237B614FF48053BB610023FB6107F11F
:100930000C030221184602F075FC0346002B01D07F
:1009400000F076FC00BF5037BD4680BD0038024045
:100950000070004080B58AB000AF2D4B2D4A1A6060
:100960002B4B10225A602A4B00229A60284B0022FF
:10097000DA60274B4FF4C0221A61254B4FF48012E6
:100980005A61234B00221A76214B00225A76204BC3
:1009900000229A761E4B0022DA761D4B00221A772F
:1009A0001B4B00225A771A4800F094FF0346002B95
:1009B00001D000F03DFC184B08221A61164B174A73
:1009C0005A60154B04229A60134B0022DA60124BD6
:1009D00000221A7501233B620A237B6100233B61DD
:1009E00000233B6000237B600023BB600023FB608F
:1009F0000023BB610123FB6100237B623B46194658
:100A0000034801F063F800BF2837BD4680BD00BF32
:100A1000CC000020006800400403002000C1FE1844
:100A200080B596B000AF07F1480300221A605A6003
:100A30009A60DA6007F1400300221A605A6007F1F9
:100A4000240300221A605A609A60DA601A615A61BF
:100A50009A613B1D20220021184604F09BFF3E4B6B
:100A60003E4A1A603C4B4F225A603B4B00229A6030
:100A7000394B40F2E732DA60374B00221A61364BCD
:100A800000225A61344B00229A61334802F0AAFDD9
:100A90000346002B01D000F0CBFB4FF48053BB6426
:100AA00007F1480319462C4803F030F90346002BA0
:100AB00001D000F0BDFB284802F054FE0346002B95
:100AC00001D000F0B5FB00233B6400237B6407F1F9
:100AD00040031946204803F0DFFD0346002B01D0F8
:100AE00000F0A6FB60237B620023BB620023FB6255
:100AF00000233B6300237B630023BB630023FB6372
:100B000007F1240300221946134803F03DF8034679
:100B1000002B01D000F08CFB00237B600023BB6026
:100B20000023FB6000233B6100237B614FF40053F3
:100B3000BB6100233B623B1D1946074803F028FEBA
:100B40000346002B01D000F073FB034800F084FC47
:100B500000BF5837BD4680BDF400002000000140B2
:100B600080B58EB000AF07F1280300221A605A60EA
:100B70009A60DA6007F1200300221A605A603B1D78
:100B800000221A605A609A60DA601A615A619A61AA
:100B9000324B334A1A60314B4F225A602F4B00229E
:100BA0009A602E4B40F2E732DA602C4B00221A6139
:100BB0002A4B00229A61294802F014FD0346002BBB
:100BC00001D000F035FB4FF48053BB6207F12803DE
:100BD0001946224803F09AF80346002B01D000F092
:100BE00027FB1E4802F0BEFD0346002B01D000F09B
:100BF0001FFB00233B6200237B6207F120031946A1
:100C0000164803F049FD0346002B01D000F010FB0D
:100C100060237B600023BB600023FB6000237B61BB
:100C20003B1D002219460D4802F0AEFF0346002B83
:100C300001D000F0FDFA3B1D04221946074802F0DE
:100C4000A3FF0346002B01D000F0F2FA034800F0A6
:100C500003FC00BF3837BD4680BD00BF3C0100200B
:100C60000004004080B58EB000AF07F128030022D9
:100C70001A605A609A60DA6007F1200300221A6055
:100C80005A603B1D00221A605A609A60DA601A614D
:100C90005A619A612C4B2D4A1A602B4B4F225A6095
:100CA000294B00229A60284B40F2E732DA60264B4B
:100CB00000221A61244B00229A61234802F092FC20
:100CC0000346002B01D000F0B3FA4FF48053BB620F
:100CD00007F1280319461C4803F018F80346002BB7
:100CE00001D000F0A5FA184802F03CFD0346002BA5
:100CF00001D000F09DFA00233B6200237B6207F1E4
:100D000020031946104803F0C7FC0346002B01D00E
:100D100000F08EFA60237B600023BB600023FB6041
:100D200000237B613B1D0C221946074802F02CFF73
:100D30000346002B01D000F07BFA034800F08CFB47
:100D400000BF3837BD4680BD840100200008004048
:100D500080B500AF0E4B0F4A1A600D4B41F63F7243
:100D60005A600B4B00229A60094B42F21072DA6013
:100D7000074B00221A61064B00229A61044802F0D8
:100D800031FC0346002B01D000F052FA00BF80BDB9
:100D9000CC010020001C004080B500AF0E4B0F4A74
:100DA0001A600D4B41F63F725A600B4B00229A605D
:100DB000094B41F28832DA60074B00221A61064B78
:100DC00000229A61044802F00DFC0346002B01D07A
:100DD00000F02EFA00BF80BD140200200020004069
:100DE00080B500AF114B124A1A60104B4FF4E1323C
:100DF0005A600E4B00229A600C4B0022DA600B4BBB
:100E000000221A61094B0C225A61084B00229A6198
:100E1000064B0022DA61054803F045FD0346002B2E
:100E200001D000F005FA00BF80BD00BF5C020020C9
:100E30000010014080B58AB000AF07F11403002212
:100E40001A605A609A60DA601A6100233B615E4B57
:100E50001B6B5D4A43F0010313635B4B1B6B03F099
:100E600001033B613B690023FB60574B1B6B564AF8
:100E700043F010031363544B1B6B03F01003FB6030
:100E8000FB680023BB60504B1B6B4F4A43F00803C9
:100E900013634D4B1B6B03F00803BB60BB6800235F
:100EA0007B60494B1B6B484A43F004031363464B7A
:100EB0001B6B03F004037B607B6800233B60424BA9
:100EC0001B6B414A43F0020313633F4B1B6B03F060
:100ED00002033B603B68002270213C4801F0DEFECB
:100EE00000224FF460413A4801F0D8FE00224FF44E
:100EF0004071384801F0D2FE01224FF4F8413548E4
:100F000001F0CCFE70237B610123BB610123FB61F7
:100F100000233B6207F1140319462C4801F00AFD37
:100F20004FF480637B614FF40413BB610023FB61CA
:100F300007F114031946264801F0FCFC4FF4C05396
:100F40007B610023BB610023FB6107F11403194699
:100F50001F4801F0EFFC4FF460437B610123BB614C
:100F60000123FB6100233B6207F114031946184873
:100F700001F0E0FC4FF440737B610123BB6101236E
:100F8000FB6100233B6207F114031946114801F08D
:100F9000D1FC4FF4F8437B610123BB610223FB6169
:100FA00000233B6207F1140319460A4801F0C2FC12
:100FB00000220121282001F0F4FB282001F00DFC83
:100FC00000BF2837BD4680BD003802400000024007
:100FD00000100240000C024080B582B000AF786083
:100FE0004FF0FF3315220649064803F0ACFC0422FB
:100FF0000549044803F032FD00BF0837BD4680BDF7
:10100000000000205C020020A402002080B584B013
:1010100000AF0346FB8000F02DFCF860394B1B68E5
:10102000FA68D31A322B66D9FB88B3F5806F62D188
:10103000354B01221A70354B1B68012B04D100225D
:101040001021334801F02AFE304B1B68022B04D1DB
:10105000002220212E4801F021FE2C4B1B68032B7F
:1010600009D1012220212A4801F018FE0022402146
:10107000274801F013FE254B1B68042B09D10122E0
:101080001021234801F00AFE00222021204801F00F
:1010900005FE1E4B1B68052B04D1012240211C4874
:1010A00001F0FCFD194B1B68062B09D10122202100
:1010B000174801F0F3FD00224021154801F0EEFD34
:1010C000124B1B68062B11DD01221021104801F084
:1010D000E5FD012220210E4801F0E0FD0122402122
:1010E0000B4801F0DBFD094B00221A60074B1B681F
:1010F0000133064A1360034AFB68136000BF1037D0
:10110000BD4680BD3403002030030020380300209A
:101110000000024080B582B000AF78607B681B6839
:10112000104A934219D14FF400410F4801F0CFFD0E
:101130000E4B1B781A460E4B9B5C184600F01AF8B3
:101140000A4B1B78002B02D1084B0A221A70074B5E
:101150001B78013BDAB2054B1A7000BF0837BD4659
:1011600080BD00BF0020004000100240470000206A
:101170004800002080B582B000AF0346FB71FB79C8
:1011800003F00103DBB21A464FF48071274801F0E7
:1011900085FDFB795B10DBB203F00103DBB21A467D
:1011A0004FF40071214801F079FDFB799B10DBB20F
:1011B00003F00103DBB21A464FF480611B4801F0D3
:1011C0006DFDFB79DB10DBB203F00103DBB21A46E5
:1011D0004FF40061154801F061FDFB791B11DBB292
:1011E00003F00103DBB21A464FF480510F4801F0BF
:1011F00055FDFB795B11DBB203F00103DBB21A464C
:101200004FF40051094801F049FDFB799B11DBB215
:1012100003F00103DBB21A464FF48041034801F0AA
:101220003DFD00BF0837BD4680BD00BF000C024039
:1012300080B400AF72B600BFFEE7000080B483B098
:1012400000AF00237B60104B5B6C0F4A43F480437C
:1012500053640D4B5B6C03F480437B607B6800231D
:101260003B60094B1B6C084A43F080531364064BE8
:101270001B6C03F080533B603B6800BF0C37BD46DE
:101280005DF8047B704700BF0038024080B58AB02B
:1012900000AF786007F1140300221A605A609A6068
:1012A000DA601A617B681B68244A934241D10023AB
:1012B0003B61234B1B6C224A43F080631364204B39
:1012C0001B6C03F080633B613B690023FB601C4B9C
:1012D0001B6C1B4A43F000731364194B1B6C03F027
:1012E0000073FB60FB680023BB60154B1B6B144A4B
:1012F00043F002031363124B1B6B03F00203BB604A
:10130000BB6860237B610223BB610023FB61032375
:101310003B6209237B6207F114031946094801F077
:1013200009FB00220021402001F03BFA402001F09F
:1013300054FA00BF2837BD4680BD00BF006800409A
:10134000003802400004024080B588B000AF7860E9
:101350007B681B683A4A93420ED10023FB61394BEC
:101360005B6C384A43F001035364364B5B6C03F00B
:101370000103FB61FB695EE07B681B68324A9342B4
:101380000ED10023BB612F4B1B6C2E4A43F002038E
:1013900013642C4B1B6C03F00203BB61BB694AE076
:1013A0007B681B68294A93420ED100237B61254B41
:1013B0001B6C244A43F004031364224B1B6C03F0A0
:1013C00004037B617B6936E07B681B68204A93429B
:1013D00016D100233B611B4B1B6C1A4A43F0800360
:1013E0001364184B1B6C03F080033B613B690022C4
:1013F00000212C2001F0D5F92C2001F0EEF91AE0A3
:101400007B681B68134A934215D10023FB600D4B88
:101410001B6C0C4A43F4807313640A4B1B6C03F47B
:101420008073FB60FB68002200212D2001F0B9F9D8
:101430002D2001F0D2F900BF2037BD4680BD00BF8E
:101440000000014000380240000400400008004055
:10145000001C00400020004080B58AB000AF7860DA
:1014600007F1140300221A605A609A60DA601A6168
:101470007B681B68374A93421FD100233B61364B80
:101480001B6B354A43F010031363334B1B6B03F0A4
:1014900010033B613B694FF480737B610223BB61A6
:1014A0000023FB6100233B6201237B6207F11403ED
:1014B00019462A4801F03EFA47E07B681B68284A33
:1014C00093421ED10023FB60234B1B6B224A43F047
:1014D00004031363204B1B6B03F00403FB60FB68E6
:1014E000C0237B610223BB610023FB6100233B62BD
:1014F00002237B6207F1140319461A4801F01AFA15
:1015000023E07B681B68184A93421ED10023BB600E
:10151000114B1B6B104A43F0080313630E4B1B6BFC
:1015200003F00803BB60BB684FF400437B610223F8
:10153000BB610023FB6100233B6202237B6207F156
:1015400014031946094801F0F5F900BF2837BD46D4
:1015500080BD00BF00000140003802400010024082
:10156000000400400008024000080040000C024057
:1015700080B58AB000AF786007F1140300221A60CA
:101580005A609A60DA601A617B681B681D4A934250
:1015900034D100233B611C4B5B6C1B4A43F01003AE
:1015A0005364194B5B6C03F010033B613B690023F0
:1015B000FB60154B1B6B144A43F001031363124B82
:1015C0001B6B03F00103FB60FB684FF4C0637B619E
:1015D0000223BB610023FB6103233B6207237B6281
:1015E00007F114031946094801F0A4F9002200216B
:1015F000252001F0D6F8252001F0EFF800BF2837AC
:10160000BD4680BD0010014000380240000002408D
:1016100080B400AFFEE780B400AFFEE780B400AF57
:10162000FEE780B400AFFEE780B400AFFEE780B411
:1016300000AF00BFBD465DF8047B704780B400AFCB
:1016400000BFBD465DF8047B704780B400AF00BFAB
:10165000BD465DF8047B704780B500AF00F0F6F83A
:1016600000BF80BD80B500AF024803F01DFA00BF87
:1016700080BD00BF5C02002080B500AF4FF48060E9
:1016800001F040FB00BF80BD80B500AF024802F012
:101690008BF900BF80BD00BFCC01002080B500AF3A
:1016A000024802F081F900BF80BD00BF1402002093
:1016B00080B500AF024800F069FD00BF80BD00BFEB
:1016C000CC00002080B586B000AF7860144A154B7E
:1016D000D31A7B617B693B61134B1B68002B02D1E2
:1016E000114B124A1A60104B1A687B6813443A690E
:1016F0009A4207D204F056F903460C221A604FF0C2
:10170000FF3309E0084B1B68FB60074B1A687B68D6
:101710001344054A1360FB6818461837BD4680BD60
:1017200000000220000400003C0300209004002080
:1017300080B400AF064BD3F88830054A43F47003F9
:10174000C2F8883000BFBD465DF8047B704700BF1B
:1017500000ED00E0DFF834D0FFF7EAFF0C480D4958
:101760000D4A002302E0D458C4500433C4188C42FC
:10177000F9D30A4A0A4C002301E013600432A24262
:10178000FBD304F015F9FEF70BFF704700000220B1
:1017900000000020B000002068630008B0000020B6
:1017A0008C040020FEE7000080B500AF0E4B1B68E4
:1017B0000D4A43F4007313600B4B1B680A4A43F451
:1017C00080631360084B1B68074A43F480731360FF
:1017D000032000F0DBFF0F2000F008F8FFF72EFDDC
:1017E0000023184680BD00BF003C024080B582B097
:1017F00000AF7860124B1A68124B1B7819464FF4F1
:101800007A73B3FBF1F3B2FBF3F3184600F0F3FF86
:101810000346002B01D001230EE07B680F2B0AD872
:10182000002279684FF0FF3000F0BBFF064A7B686A
:101830001360002300E0012318460837BD4680BD31
:10184000540000205C0000205800002080B400AF4D
:10185000064B1B781A46064B1B681344044A136058
:1018600000BFBD465DF8047B704700BF5C000020F0
:101870004003002080B400AF034B1B681846BD46F0
:101880005DF8047B704700BF4003002080B584B042
:1018900000AF7860FFF7EEFFB8607B68FB60FB6825
:1018A000B3F1FF3F05D00A4B1B781A46FB6813447F
:1018B000FB6000BFFFF7DEFF0246BB68D31AFA6881
:1018C0009A42F7D800BF00BF1037BD4680BD00BFA9
:1018D0005C00002080B584B000AF78607B68002B8E
:1018E00001D10123EDE07B6893F82030DBB2002BBF
:1018F00002D17868FFF7CAFC7B681B681A687B68AE
:101900001B6842F001021A60FFF7B4FFF86012E0B2
:10191000FFF7B0FF0246FB68D31A0A2B0BD97B688E
:101920005B6A43F400327B685A627B68052283F865
:1019300020200123C5E07B681B685B6803F001037E
:10194000002BE5D07B681B681A687B681B6822F057
:1019500002021A60FFF78EFFF86012E0FFF78AFFBD
:101960000246FB68D31A0A2B0BD97B685B6A43F4E7
:1019700000327B685A627B68052283F820200123AD
:101980009FE07B681B685B6803F00203002BE5D1D6
:101990007B681B7E012B08D17B681B681A687B68FB
:1019A0001B6842F080021A6007E07B681B681A68B7
:1019B0007B681B6822F080021A607B685B7E012BCB
:1019C00008D17B681B681A687B681B6842F040027C
:1019D0001A6007E07B681B681A687B681B6822F046
:1019E00040021A607B689B7E012B08D17B681B68D4
:1019F0001A687B681B6842F020021A6007E07B6867
:101A00001B681A687B681B6822F020021A607B68DA
:101A1000DB7E012B08D17B681B681A687B681B681A
:101A200022F010021A6007E07B681B681A687B6866
:101A30001B6842F010021A607B681B7F012B08D1E3
:101A40007B681B681A687B681B6842F008021A6092
:101A500007E07B681B681A687B681B6822F0080235
:101A60001A607B685B7F012B08D17B681B681A6852
:101A70007B681B6842F004021A6007E07B681B6801
:101A80001A687B681B6822F004021A607B689A68F7
:101A90007B68DB681A437B681B691A437B685B6958
:101AA00042EA03017B685B685A1E7B681B680A4335
:101AB000DA617B6800225A627B68012283F8202069
:101AC000002318461037BD4680BD000080B487B0A3
:101AD00000AF786039607B681B687B617B6893F836
:101AE0002030FB74FB7C012B03D0FB7C022B40F0ED
:101AF000BE80654B7B617B69D3F8003243F0010205
:101B00007B69C3F800227B69D3F8003223F47C524E
:101B10007B69C3F800227B69D3F800223B685B6ACB
:101B20001B021A437B69C3F800223B685B6903F020
:101B30001F03012202FA03F3FB607B69D3F81C2226
:101B4000FB68DB431A407B69C3F81C223B68DB69F6
:101B5000002B23D17B69D3F80C22FB68DB431A40AE
:101B60007B69C3F80C223B68DB6819043B685B683F
:101B70009BB23A68526919437B69483243F8321084
:101B80003B689B6819043B681B689AB23B685B69B9
:101B90000A4379694833DB000B445A603B68DB69D0
:101BA000012B22D17B69D3F80C22FB681A437B6995
:101BB000C3F80C223B681B6819043B685B689BB246
:101BC0003A68526919437B69483243F832103B68DE
:101BD0009B6819043B68DB689AB23B685B690A43FF
:101BE00079694833DB000B445A603B689B69002BE2
:101BF00009D17B69D3F80422FB68DB431A407B6977
:101C0000C3F8042207E07B69D3F80422FB681A4377
:101C10007B69C3F804223B681B69002B09D17B69EF
:101C2000D3F81422FB68DB431A407B69C3F8142203
:101C300007E07B69D3F81422FB681A437B69C3F879
:101C400014223B681B6A012B07D17B69D3F81C2245
:101C5000FB681A437B69C3F81C227B69D3F8003206
:101C600023F001027B69C3F80022002306E07B68B1
:101C70005B6A43F480227B685A62012318461C3752
:101C8000BD465DF8047B70470064004080B584B0B9
:101C900000AF78607B6893F82030DBB2012B2ED147
:101CA0007B68022283F820207B681B681A687B68A7
:101CB0001B6822F001021A60FFF7DCFDF86012E0F9
:101CC000FFF7D8FD0246FB68D31A0A2B0BD97B68B5
:101CD0005B6A43F400327B685A627B68052283F8B2
:101CE0002020012312E07B681B685B6803F001037E
:101CF000002BE5D17B6800225A62002306E07B6856
:101D00005B6A43F400227B685A620123184610374D
:101D1000BD4680BD80B489B000AFF860B9607A601C
:101D20003B60FB6893F82030FB77FB681B689B687F
:101D3000BB61FB7F012B03D0FB7F022B40F0AD800A
:101D4000BB6903F08063002B0AD1BB6903F0006319
:101D5000002B05D1BB6903F08053002B00F0958068
:101D6000BB691B0E03F003037B6101227B699A4070
:101D70003B681A60BB689B68002B0DD1BB681B6871
:101D80005A05BB68DB68F96809681A437B69183330
:101D90001B010B441A600FE0BB685B68DA00BB688C
:101DA0009B681A43BB68DB68F96809681A437B695A
:101DB00018331B010B441A60FB681968BB681A6969
:101DC0007B6918331B010B4404331A60BB681B7D0D
:101DD000012B11D1FB681A687B6918331B0113446E
:101DE00004331B68FA68116843F480727B69183306
:101DF0001B010B4404331A607B6807331B781A06F7
:101E00007B6806331B781B041A437B6805331B78F9
:101E10001B0213437A68043212781046FA6811687C
:101E200043EA00027B691B010B4403F5C6731A6089
:101E30007B6803331B781A067B6802331B781B040C
:101E40001A437B6801331B781B0213437A681278AC
:101E50001046FA68116843EA00027B691B010B44D3
:101E600003F5C4731A60FB681A687B6918331B0199
:101E700013441B68FA68116843F001027B69183348
:101E80001B010B441A6000230EE0FB685B6A43F4FD
:101E90000012FB685A62012306E0FB685B6A43F4A8
:101EA0008022FB685A62012318462437BD465DF83C
:101EB000047B704780B485B000AF78603960002340
:101EC000FB607B6893F82030FB72FB7A012B02D019
:101ED000FB7A022B0BD17B681B689A683B689B06D8
:101EE0001A403B689B069A4201D00123FB60FB68C5
:101EF00018461437BD465DF8047B704780B487B040
:101F000000AFF860B9607A603B60FB6893F82030FE
:101F1000FB75FB7D012B03D0FB7D022B40F0038181
:101F2000BB68002B0ED1FB681B68DB6803F0030362
:101F3000002B16D1FB685B6A43F40012FB685A62FF
:101F40000123F7E0FB681B681B6903F00303002B08
:101F500007D1FB685B6A43F40012FB685A620123F5
:101F6000E8E0FB681A68BB681B331B0113441B685D
:101F700003F004027B689A607B689B68002B0CD19D
:101F8000FB681A68BB681B331B0113441B685B0D9D
:101F9000C3F30A027B681A600BE0FB681A68BB682F
:101FA0001B331B0113441B68DB0823F060427B6872
:101FB0005A60FB681A68BB681B331B0113441B681B
:101FC00003F002027B68DA60FB681A68BB681B33A7
:101FD0001B01134404331B6803F00803002B03D0D8
:101FE0007B6808221A610BE0FB681A68BB681B3328
:101FF0001B01134404331B6803F00F027B681A6152
:10200000FB681A68BB681B331B01134404331B684D
:102010001B0ADAB27B689A61FB681A68BB681B33DB
:102020001B01134404331B681B0C9AB27B685A6172
:10203000FB681A68BB681B01134403F5DC731B685B
:10204000DAB23B681A70FB681A68BB681B0113445C
:1020500003F5DC731B681A0A3B680133D2B21A70AD
:10206000FB681A68BB681B01134403F5DC731B682B
:102070001A0C3B680233D2B21A70FB681A68BB684C
:102080001B01134403F5DC731B681A0E3B68033312
:10209000D2B21A70FB681A68BB681B01134403F5BF
:1020A000DE731A683B680433D2B21A70FB681A6890
:1020B000BB681B01134403F5DE731B681A0A3B68F7
:1020C0000533D2B21A70FB681A68BB681B0113444F
:1020D00003F5DE731B681A0C3B680633D2B21A7024
:1020E000FB681A68BB681B01134403F5DE731B68A9
:1020F0001A0E3B680733D2B21A70BB68002B08D1A6
:10210000FB681B68DA68FB681B6842F02002DA6033
:1021100007E0FB681B681A69FB681B6842F0200235
:102120001A61002306E0FB685B6A43F48022FB68C7
:102130005A62012318461C37BD465DF8047B704780
:1021400080B485B000AF786039607B6893F8203048
:10215000FB73FB7B012B02D0FB7B022B09D17B683D
:102160001B6859697B681B683A680A435A610023F7
:1021700006E07B685B6A43F480227B685A62012335
:1021800018461437BD465DF8047B704780B58AB0A9
:1021900000AF786000237B627B681B685B693B62F1
:1021A0007B681B685B68FB617B681B689B68BB6125
:1021B0007B681B68DB687B617B681B681B693B6114
:1021C0007B681B689B69FB603B6A03F00103002B83
:1021D0007CD0BB6903F00103002B23D07B681B6814
:1021E00001229A60BB6903F00203002B03D07868D8
:1021F00000F083F916E0BB6903F00403002B04D060
:102200007B6A43F400637B620CE0BB6903F0080364
:10221000002B04D07B6A43F480537B6202E0786831
:1022200000F089F9BB6903F48073002B24D07B682C
:102230001B684FF480729A60BB6903F40073002B33
:1022400003D0786800F063F916E0BB6903F480639B
:10225000002B04D07B6A43F400537B620CE0BB6923
:1022600003F40063002B04D07B6A43F480437B6259
:1022700002E0786800F069F9BB6903F48033002B51
:1022800024D07B681B684FF480329A60BB6903F4EA
:102290000033002B03D0786800F043F916E0BB69E7
:1022A00003F48023002B04D07B6A43F400437B6259
:1022B0000CE0BB6903F40023002B04D07B6A43F4D9
:1022C00080337B6202E0786800F049F93B6A03F0F2
:1022D0000803002B0CD07B6903F01003002B07D000
:1022E0007B6A43F400737B627B681B681022DA60B0
:1022F0003B6A03F00403002B0BD07B6903F0080357
:10230000002B06D07B681B680822DA60786800F032
:1023100030F93B6A03F00203002B09D07B681B688D
:10232000DB6803F00303002B02D07868FEF71EF988
:102330003B6A03F04003002B0CD03B6903F0100311
:10234000002B07D07B6A43F480637B627B681B6849
:1023500010221A613B6A03F02003002B0BD03B696B
:1023600003F00803002B06D07B681B6808221A6163
:10237000786800F012F93B6A03F01003002B09D0D3
:102380007B681B681B6903F00303002B02D078688D
:1023900000F0F9F83B6A03F40033002B0BD0FB6923
:1023A00003F01003002B06D07B681B6810225A60D4
:1023B000786800F0FCF83B6A03F48033002B0BD004
:1023C000FB6903F00803002B06D07B681B6808221A
:1023D0005A60786800F0F5F83B6A03F40043002B7C
:1023E0007BD0FB6903F00403002B72D03B6A03F43B
:1023F0008073002B08D0FB6803F00103002B03D08F
:102400007B6A43F001037B623B6A03F40073002B99
:1024100008D0FB6803F00203002B03D07B6A43F073
:1024200002037B623B6A03F48063002B08D0FB68E5
:1024300003F00403002B03D07B6A43F004037B62A8
:102440003B6A03F40063002B43D0FB6803F0700386
:10245000002B3ED0FB6803F07003602B2BD0602B69
:102460002ED8502B22D0502B2AD8402B19D0402BBD
:1024700026D8302B10D0302B22D8102B02D0202B76
:1024800005D01DE07B6A43F008037B6219E07B6A9C
:1024900043F010037B6214E07B6A43F020037B620D
:1024A0000FE07B6A43F040037B620AE07B6A43F003
:1024B00080037B6205E07B6A43F480737B6200E00B
:1024C00000BF7B681B689A697B681B6822F07002FA
:1024D0009A617B681B6804225A607B6A002B08D0D3
:1024E0007B685A6A7B6A1A437B685A62786800F094
:1024F00072F800BF2837BD4680BD80B483B000AFFE
:10250000786000BF0C37BD465DF8047B704780B42F
:1025100083B000AF786000BF0C37BD465DF8047B28
:10252000704780B483B000AF786000BF0C37BD4601
:102530005DF8047B704780B483B000AF786000BF63
:102540000C37BD465DF8047B704780B483B000AFA4
:10255000786000BF0C37BD465DF8047B704780B4DF
:1025600083B000AF786000BF0C37BD465DF8047BD8
:10257000704780B483B000AF786000BF0C37BD46B1
:102580005DF8047B704780B483B000AF786000BF13
:102590000C37BD465DF8047B704780B483B000AF54
:1025A000786000BF0C37BD465DF8047B704780B48F
:1025B00083B000AF786000BF0C37BD465DF8047B88
:1025C000704780B483B000AF786000BF0C37BD4661
:1025D0005DF8047B704780B483B000AF786000BFC3
:1025E0000C37BD465DF8047B7047000080B485B0B1
:1025F00000AF78607B6803F00703FB600C4BDB687F
:10260000BB60BA684FF6FF031340BB60FB681A0259
:10261000BB68134343F0BF6343F40033BB60044A19
:10262000BB68D36000BF1437BD465DF8047B7047BC
:1026300000ED00E080B400AF044BDB681B0A03F040
:1026400007031846BD465DF8047B704700ED00E0C7
:1026500080B483B000AF0346FB7197F90730002BBD
:102660000BDBFB7903F01F02074997F907305B0981
:10267000012000FA02F241F8232000BF0C37BD46CA
:102680005DF8047B704700BF00E100E080B483B0D8
:1026900000AF03463960FB7197F90730002B0ADB66
:1026A0003B68DAB20C4997F907301201D2B20B44F9
:1026B00083F800230AE03B68DAB20849FB7903F0AB
:1026C0000F03043B1201D2B20B441A7600BF0C3741
:1026D000BD465DF8047B704700E100E000ED00E0DE
:1026E00080B489B000AFF860B9607A60FB6803F02D
:1026F0000703FB61FB69C3F10703042B28BF042315
:10270000BB61FB690433062B02D9FB69033B00E084
:1027100000237B614FF0FF32BB6902FA03F3DA4317
:10272000BB681A407B699A404FF0FF317B6901FA20
:1027300003F3D9437B680B40134318462437BD4647
:102740005DF8047B7047000080B582B000AF786010
:102750007B68013BB3F1807F01D301230FE00A4A7C
:102760007B68013B53600F214FF0FF30FFF78EFF76
:10277000054B00229A60044B07221A60002318467A
:102780000837BD4680BD00BF10E000E080B582B0D4
:1027900000AF78607868FFF729FF00BF0837BD46B3
:1027A00080BD80B586B000AF0346B9607A60FB7328
:1027B00000237B61FFF73EFF78617A68B96878692A
:1027C000FFF78EFF024697F90F3011461846FFF7C4
:1027D0005DFF00BF1837BD4680BD80B582B000AF39
:1027E0000346FB7197F907301846FFF731FF00BF2A
:1027F0000837BD4680BD80B582B000AF786078688C
:10280000FFF7A2FF034618460837BD4680BD80B5D6
:1028100084B000AF78607B689B6DFB60FFF72AF89F
:10282000B8607B6893F83530DBB2022B08D07B6848
:1028300080225A657B68002283F83420012352E00D
:102840007B681B681A687B681B6822F016021A6096
:102850007B681B685A697B681B6822F080025A619A
:102860007B681B6C002B03D17B689B6C002B07D013
:102870007B681B681A687B681B6822F008021A6074
:102880007B681B681A687B681B6822F001021A606B
:1028900013E0FEF7EFFF0246BB68D31A052B0CD9F5
:1028A0007B6820225A657B68032283F835207B6889
:1028B000002283F83420032315E07B681B681B6823
:1028C00003F00103002BE4D17B68DB6D3F229A40CB
:1028D000FB689A607B68012283F835207B680022C0
:1028E00083F83420002318461037BD4680BD80B4DD
:1028F00083B000AF78607B6893F83530DBB2022B91
:1029000004D07B6880225A6501230CE07B68052295
:1029100083F835207B681B681A687B681B6822F087
:1029200001021A60002318460C37BD465DF8047B8F
:102930007047000080B489B000AF78603960002330
:102940007B6100233B610023BB610023FB616BE1E2
:102950000122FB6902FA03F37B613B681B687A6919
:1029600013403B613A697B699A4240F05A813B6867
:102970005B6803F00303012B05D03B685B6803F041
:102980000303022B30D17B689B68BB61FB695B0052
:10299000032202FA03F3DB43BA691340BB613B68CD
:1029A000DA68FB695B0002FA03F3BA691343BB619F
:1029B0007B68BA699A607B685B68BB610122FB69CE
:1029C00002FA03F3DB43BA691340BB613B685B68FF
:1029D0001B0903F00102FB6902FA03F3BA6913430E
:1029E000BB617B68BA695A603B685B6803F00303AC
:1029F000032B17D07B68DB68BB61FB695B0003229C
:102A000002FA03F3DB43BA691340BB613B689A687F
:102A1000FB695B0002FA03F3BA691343BB617B688D
:102A2000BA69DA603B685B6803F00303022B23D1C9
:102A3000FB69DA087B68083253F82230BB61FB6916
:102A400003F007039B000F2202FA03F3DB43BA698A
:102A50001340BB613B681A69FB6903F007039B00E5
:102A600002FA03F3BA691343BB61FB69DA087B68B6
:102A70000832B96943F822107B681B68BB61FB69A7
:102A80005B00032202FA03F3DB43BA691340BB6124
:102A90003B685B6803F00302FB695B0002FA03F327
:102AA000BA691343BB617B68BA691A603B685B68AB
:102AB00003F44033002B00F0B4800023FB60604B34
:102AC0005B6C5F4A43F4804353645D4B5B6C03F47F
:102AD0008043FB60FB685B4AFB699B08023352F84A
:102AE0002330BB61FB6903F003039B000F2202FA52
:102AF00003F3DB43BA691340BB617B68524A9342DC
:102B00002BD07B68514A934225D07B68504A934230
:102B10001FD07B684F4A934219D07B684E4A93423C
:102B200013D07B684D4A93420DD07B684C4A934248
:102B300007D07B684B4A934201D107230EE008235C
:102B40000CE006230AE0052308E0042306E0032343
:102B500004E0022302E0012300E00023FA6902F00E
:102B6000030292009340BA691343BB613549FB6984
:102B70009B080233BA6941F823203B4B9B68BB6139
:102B80003B69DB43BA691340BB613B685B6803F494
:102B90008013002B03D0BA693B691343BB61324AEF
:102BA000BB699360304BDB68BB613B69DB43BA694F
:102BB0001340BB613B685B6803F40013002B03D038
:102BC000BA693B691343BB61274ABB69D360264B93
:102BD0005B68BB613B69DB43BA691340BB613B681F
:102BE0005B6803F40033002B03D0BA693B691343DD
:102BF000BB611D4ABB6953601B4B1B68BB613B69D2
:102C0000DB43BA691340BB613B685B6803F4803304
:102C1000002B03D0BA693B691343BB61124ABB69FD
:102C20001360FB690133FB61FB690F2B7FF690AEEC
:102C300000BF00BF2437BD465DF8047B704700BF6E
:102C40000038024000380140000002400004024009
:102C500000080240000C0240001002400014024034
:102C600000180240001C0240003C014080B485B0C6
:102C700000AF78600B467B807B681A697B881340C5
:102C8000002B02D00123FB7301E00023FB73FB7BCD
:102C900018461437BD465DF8047B704780B483B096
:102CA00000AF78600B467B8013467B707B78002BEF
:102CB00003D07A887B689A6103E07B881A047B687A
:102CC0009A6100BF0C37BD465DF8047B704780B445
:102CD00085B000AF78600B467B807B685B69FB60EA
:102CE0007A88FB6813401A04FB68D9437B880B4041
:102CF0001A437B689A6100BF1437BD465DF8047BB8
:102D00007047000080B582B000AF0346FB80084BDF
:102D10005A69FB881340002B06D0054AFB88536193
:102D2000FB881846FEF772F900BF0837BD4680BD24
:102D3000003C014080B586B000AF78607B68002B16
:102D400001D1012367E27B681B6803F00103002BBC
:102D500075D0884B9B6803F00C03042B0CD0854B7B
:102D60009B6803F00C03082B12D1824B5B6803F4C1
:102D70008003B3F5800F0BD17E4B1B6803F4003347
:102D8000002B5BD07B685B68002B57D1012342E2AC
:102D90007B685B68B3F5803F06D1764B1B68754A4C
:102DA00043F4803313601DE07B685B68B3F5A02FAC
:102DB0000CD1704B1B686F4A43F4802313606D4B3A
:102DC0001B686C4A43F4803313600BE0694B1B684B
:102DD000684A23F480331360664B1B68654A23F40A
:102DE000802313607B685B68002B13D0FEF742FDE5
:102DF000386108E0FEF73EFD02463B69D31A642BBA
:102E000001D9032307E25B4B1B6803F40033002B5B
:102E1000F0D014E0FEF72EFD386108E0FEF72AFD41
:102E200002463B69D31A642B01D90323F3E1514BCA
:102E30001B6803F40033002BF0D100E000BF7B6877
:102E40001B6803F00203002B63D04A4B9B6803F01E
:102E50000C03002B0BD0474B9B6803F00C03082B93
:102E60001CD1444B5B6803F48003002B16D1414B0B
:102E70001B6803F00203002B05D07B68DB68012B85
:102E800001D00123C7E13B4B1B6823F0F8027B68AC
:102E90001B69DB00374913430B603AE07B68DB6852
:102EA000002B20D0344B01221A60FEF7E3FC38617E
:102EB00008E0FEF7DFFC02463B69D31A022B01D97A
:102EC0000323A8E12B4B1B6803F00203002BF0D077
:102ED000284B1B6823F0F8027B681B69DB0025493F
:102EE00013430B6015E0244B00221A60FEF7C2FC6E
:102EF000386108E0FEF7BEFC02463B69D31A022B9C
:102F000001D9032387E11B4B1B6803F00203002B4D
:102F1000F0D17B681B6803F00803002B36D07B6878
:102F20005B69002B16D0154B01221A60FEF7A2FC3C
:102F3000386108E0FEF79EFC02463B69D31A022B7B
:102F400001D9032367E10B4B5B6F03F00203002BF6
:102F5000F0D01BE0094B00221A60FEF78BFC3861B1
:102F60000EE0FEF787FC02463B69D31A022B07D915
:102F7000032350E10038024000004742800E4742E0
:102F8000884B5B6F03F00203002BEAD17B681B6860
:102F900003F00403002B00F097800023FB75814BA6
:102FA0001B6C03F08053002B0FD10023BB607D4BC3
:102FB0001B6C7C4A43F0805313647A4B1B6C03F008
:102FC0008053BB60BB680123FB75774B1B6803F420
:102FD0008073002B18D1744B1B68734A43F48073C1
:102FE0001360FEF747FC386108E0FEF743FC024639
:102FF0003B69D31A022B01D903230CE16A4B1B68EE
:1030000003F48073002BF0D07B689B68012B06D102
:10301000644B1B6F634A43F0010313671CE07B683A
:103020009B68052B0CD15F4B1B6F5E4A43F004037A
:1030300013675C4B1B6F5B4A43F0010313670BE0A4
:10304000584B1B6F574A23F001031367554B1B6FF7
:10305000544A23F0040313677B689B68002B15D048
:10306000FEF708FC38610AE0FEF704FC02463B6903
:10307000D31A41F28832934201D90323CBE0494B62
:103080001B6F03F00203002BEED014E0FEF7F2FBFF
:1030900038610AE0FEF7EEFB02463B69D31A41F2C3
:1030A0008832934201D90323B5E03E4B1B6F03F0F6
:1030B0000203002BEED1FB7D012B05D1394B1B6C9C
:1030C000384A23F0805313647B689B69002B00F01F
:1030D000A180344B9B6803F00C03082B5CD07B6809
:1030E0009B69022B41D1314B00221A60FEF7C2FBD3
:1030F000386108E0FEF7BEFB02463B69D31A022B9B
:1031000001D9032387E0274B1B6803F00073002BD2
:10311000F0D17B68DA697B681B6A1A437B685B6A5B
:103120009B011A437B689B6A5B08013B1B041A43A3
:103130007B68DB6A1B061B4913434B601B4B012258
:103140001A60FEF797FB386108E0FEF793FB024632
:103150003B69D31A022B01D903235CE0114B1B6896
:1031600003F00073002BF0D054E0104B00221A60E3
:10317000FEF780FB386108E0FEF77CFB02463B6906
:10318000D31A022B01D9032345E0064B1B6803F039
:103190000073002BF0D13DE07B689B69012B07D1C8
:1031A000012338E0003802400070004060004742D0
:1031B0001B4B5B68FB607B689B69012B28D0FB681D
:1031C00003F480027B68DB699A4221D1FB6803F03B
:1031D0003F027B681B6A9A421AD1FA6847F6C073AD
:1031E00013407A68526A9201934211D1FB6803F44A
:1031F00040327B689B6A5B08013B1B049A4207D103
:10320000FB6803F070627B68DB6A1B069A4201D0A0
:10321000012300E0002318461837BD4680BD00BFDB
:103220000038024080B584B000AF786039607B68B8
:10323000002B01D10123CCE0684B1B6803F007038E
:103240003A689A420CD9654B3A68D2B21A70634B0D
:103250001B6803F007033A689A4201D00123B8E0E3
:103260007B681B6803F00203002B20D07B681B687F
:1032700003F00403002B05D0594B9B68584A43F4D4
:10328000E05393607B681B6803F00803002B05D0B4
:10329000534B9B68524A43F460439360504B9B6886
:1032A00023F0F0027B689B684D4913438B607B6879
:1032B0001B6803F00103002B44D07B685B68012B83
:1032C00007D1474B1B6803F40033002B19D10123AE
:1032D0007FE07B685B68022B03D07B685B68032B15
:1032E00007D13F4B1B6803F00073002B09D101236A
:1032F0006FE03B4B1B6803F00203002B01D101235D
:1033000067E0374B9B6823F003027B685B683449B6
:1033100013438B60FEF7AEFAF8600AE0FEF7AAFAF4
:103320000246FB68D31A41F28832934201D9032343
:103330004FE02B4B9B6803F00C027B685B689B00A3
:103340009A42EBD1254B1B6803F007033A689A4277
:103350000CD2224B3A68D2B21A70204B1B6803F091
:1033600007033A689A4201D0012332E07B681B6868
:1033700003F00403002B08D0194B9B6823F4E052A0
:103380007B68DB68164913438B607B681B6803F01E
:103390000803002B09D0124B9B6823F460427B6822
:1033A0001B69DB000E4913438B6000F021F80246D5
:1033B0000B4B9B681B0903F00F030A49CB5C22FAF5
:1033C00003F3094A1360094B1B681846FEF70EFA0F
:1033D000002318461037BD4680BD00BF003C0240A8
:1033E000003802400C630008540000205800002000
:1033F0002DE9B04F90B000AF00237B630023FB6347
:1034000000233B630023BB63594B9B6803F00C0311
:10341000082B0DD0082B00F2A180002B02D0042B2A
:1034200003D09BE0534BBB639BE0534BBB6398E0E3
:103430004F4B5B6803F03F037B634D4B5B6803F4CA
:103440008003002B28D04A4B5B689B0900223B621B
:103450007A623B6AC3F308000021474B03FB01F289
:10346000002300FB03F31344434AA0FB0212FA6259
:103470000A46BA62FA6A1344FB627B6B0022BB61A4
:10348000FA61D7E90623D7E90A01FCF7F1FE024603
:103490000B461346FB6353E0354B5B689B090022E8
:1034A0003B617A613B69C3F3080A4FF0000B524657
:1034B0005B464FF000004FF00001590141EAD26134
:1034C000500102460B46B2EB0A0863EB0B094FF0C2
:1034D00000024FF000034FEA891343EA98634FEA72
:1034E0008812B2EB080463EB09054FF000024FF0BD
:1034F0000003EB0043EA5473E20014461D4614EB4C
:103500000A033B6045EB0B037B604FF000024FF07A
:103510000003D7E9004529468B02214643EA91532F
:1035200021468A02104619467B6B0022BB60FA6076
:10353000D7E90223FCF79CFE02460B461346FB63C9
:103540000B4B5B681B0C03F0030301335B003B6315
:10355000FA6B3B6BB2FBF3F3BB6302E0054BBB635F
:1035600000BFBB6B18464037BD46BDE8B08F00BFFB
:10357000003802400024F40040787D0180B400AFA0
:10358000034B1B681846BD465DF8047B704700BFBF
:103590005400002080B500AFFFF7F0FF0246054B56
:1035A0009B689B0A03F007030349CB5C22FA03F3F1
:1035B000184680BD003802401C63000880B500AF8B
:1035C000FFF7DCFF0246054B9B685B0B03F007032C
:1035D0000349CB5C22FA03F3184680BD0038024051
:1035E0001C63000880B582B000AF78607B68002B58
:1035F00001D1012341E07B6893F83D30DBB2002B21
:1036000006D17B68002283F83C207868FDF79CFE99
:103610007B68022283F83D207B681A687B6804334C
:103620001946104600F062FC7B68012283F84620B0
:103630007B68012283F83E207B68012283F83F20CB
:103640007B68012283F840207B68012283F84120B7
:103650007B68012283F842207B68012283F84320A3
:103660007B68012283F844207B68012283F845208F
:103670007B68012283F83D20002318460837BD46A9
:1036800080BD000080B485B000AF78607B6893F89F
:103690003D30DBB2012B01D001234EE07B680222DA
:1036A00083F83D207B681B68DA687B681B6842F002
:1036B0000102DA607B681B68234A934222D07B6850
:1036C0001B68B3F1804F1DD07B681B681F4A934273
:1036D00018D07B681B681E4A934213D07B681B6816
:1036E0001C4A93420ED07B681B681B4A934209D048
:1036F0007B681B68194A934204D07B681B68184A90
:10370000934211D17B681B689B6803F00703FB6041
:10371000FB68062B10D07B681B681A687B681B68E7
:1037200042F001021A6007E07B681B681A687B6838
:103730001B6842F001021A60002318461437BD4688
:103740005DF8047B704700BF0000014000040040AA
:1037500000080040000C004000040140004001400F
:103760000018004080B582B000AF78607B68002B05
:1037700001D1012341E07B6893F83D30DBB2002B9F
:1037800006D17B68002283F83C20786800F039F885
:103790007B68022283F83D207B681A687B680433CB
:1037A0001946104600F0A2FB7B68012283F84620F0
:1037B0007B68012283F83E207B68012283F83F204A
:1037C0007B68012283F840207B68012283F8412036
:1037D0007B68012283F842207B68012283F8432022
:1037E0007B68012283F844207B68012283F845200E
:1037F0007B68012283F83D20002318460837BD4628
:1038000080BD80B483B000AF786000BF0C37BD4688
:103810005DF8047B7047000080B584B000AF78602D
:1038200039603B68002B09D17B6893F83E30DBB2EE
:10383000012B14BF01230023DBB222E03B68042BE1
:1038400009D17B6893F83F30DBB2012B14BF012311
:103850000023DBB215E03B68082B09D17B6893F8A5
:103860004030DBB2012B14BF01230023DBB208E0A0
:103870007B6893F84130DBB2012B14BF0123002396
:10388000DBB2002B01D001237CE03B68002B04D18C
:103890007B68022283F83E2013E03B68042B04D1AE
:1038A0007B68022283F83F200BE03B68082B04D1A1
:1038B0007B68022283F8402003E07B68022283F8C1
:1038C00041207B681B6801223968184600F004FE1D
:1038D0007B681B682D4A934204D07B681B682C4A86
:1038E000934201D1012300E00023002B07D07B6825
:1038F0001B685A6C7B681B6842F400425A647B6800
:103900001B68224A934222D07B681B68B3F1804F28
:103910001DD07B681B681F4A934218D07B681B68C8
:103920001D4A934213D07B681B681C4A93420ED0F9
:103930007B681B68164A934209D07B681B68184A4B
:10394000934204D07B681B68164A934211D17B686E
:103950001B689B6803F00703FB60FB68062B10D015
:103960007B681B681A687B681B6842F001021A605A
:1039700007E07B681B681A687B681B6842F00102DD
:103980001A60002318461037BD4680BD0000014074
:10399000000401400004004000080040000C00400A
:1039A000004001400018004080B584B000AF78604E
:1039B0007B681B68DB68FB607B681B681B69BB60FE
:1039C000BB6803F00203002B20D0FB6803F0020366
:1039D000002B1BD07B681B686FF002021A617B68AA
:1039E00001221A777B681B689B6903F00303002B95
:1039F00003D0786800F05BFA05E0786800F04DFAD3
:103A0000786800F05EFA7B6800221A77BB6803F0E2
:103A10000403002B20D0FB6803F00403002B1BD011
:103A20007B681B686FF004021A617B6802221A77B8
:103A30007B681B689B6903F44073002B03D0786894
:103A400000F035FA05E0786800F027FA786800F0B1
:103A500038FA7B6800221A77BB6803F00803002B52
:103A600020D0FB6803F00803002B1BD07B681B6889
:103A70006FF008021A617B6804221A777B681B6862
:103A8000DB6903F00303002B03D0786800F00FFA22
:103A900005E0786800F001FA786800F012FA7B68B7
:103AA00000221A77BB6803F01003002B20D0FB68BC
:103AB00003F01003002B1BD07B681B686FF0100213
:103AC0001A617B6808221A777B681B68DB6903F43C
:103AD0004073002B03D0786800F0E9F905E07868BE
:103AE00000F0DBF9786800F0ECF97B6800221A77C7
:103AF000BB6803F00103002B0CD0FB6803F001034B
:103B0000002B07D07B681B686FF001021A61786890
:103B1000FDF700FBBB6803F08003002B0CD0FB68B3
:103B200003F08003002B07D07B681B686FF08002D6
:103B30001A61786800F088FEBB6803F04003002B30
:103B40000CD0FB6803F04003002B07D07B681B6898
:103B50006FF040021A61786800F0BDF9BB6803F0AD
:103B60002003002B0CD0FB6803F02003002B07D0B0
:103B70007B681B686FF020021A61786800F05AFEBB
:103B800000BF1037BD4680BD80B586B000AFF8607D
:103B9000B9607A600023FB75FB6893F83C30012B19
:103BA00001D10223AEE0FB68012283F83C207B6850
:103BB0000C2B00F29F8001A252F823F0F13B000889
:103BC000F53C0008F53C0008F53C0008313C0008D5
:103BD000F53C0008F53C0008F53C0008733C000883
:103BE000F53C0008F53C0008F53C0008B33C000833
:103BF000FB681B68B968184600F024FAFB681B686C
:103C00009A69FB681B6842F008029A61FB681B68AE
:103C10009A69FB681B6822F004029A61FB681B68C2
:103C20009969BB681A69FB681B680A439A6164E07A
:103C3000FB681B68B968184600F074FAFB681B68DB
:103C40009A69FB681B6842F400629A61FB681B6812
:103C50009A69FB681B6822F480629A61FB681B68A2
:103C60009969BB681B691A02FB681B680A439A6161
:103C700043E0FB681B68B968184600F0C9FAFB68A6
:103C80001B68DA69FB681B6842F00802DA61FB68AE
:103C90001B68DA69FB681B6822F00402DA61FB68C2
:103CA0001B68D969BB681A69FB681B680A43DA613B
:103CB00023E0FB681B68B968184600F01DFBFB6831
:103CC0001B68DA69FB681B6842F40062DA61FB6812
:103CD0001B68DA69FB681B6822F48062DA61FB68A2
:103CE0001B68D969BB681B691A02FB681B680A4319
:103CF000DA6102E00123FB7500BFFB68002283F854
:103D00003C20FB7D18461837BD4680BD80B584B089
:103D100000AF786039600023FB737B6893F83C3018
:103D2000012B01D10223B4E07B68012283F83C20FF
:103D30007B68022283F83D207B681B689B68BB6020
:103D4000BB6823F07703BB60BB6823F47F43BB6091
:103D50007B681B68BA689A603B681B68B3F5005FB4
:103D60003ED0B3F5005F00F28780B3F5805F00F0CE
:103D70008680B3F5805F7FD8702B1AD0702B7BD8EC
:103D8000602B50D0602B77D8502B3CD0502B73D861
:103D9000402B58D0402B6FD8302B64D0302B6BD8B1
:103DA000202B60D0202B67D8002B5CD0102B5AD052
:103DB00062E07B6818683B6899683B685A683B68B2
:103DC000DB6800F069FB7B681B689B68BB60BB68B5
:103DD00043F07703BB607B681B68BA689A604FE06A
:103DE0007B6818683B6899683B685A683B68DB6881
:103DF00000F052FB7B681B689A687B681B6842F482
:103E000080429A603CE07B6818683B6859683B6870
:103E1000DB681A4600F0C6FA7B681B68502118461A
:103E200000F01FFB2CE07B6818683B6859683B6812
:103E3000DB681A4600F0E5FA7B681B6860211846CB
:103E400000F00FFB1CE07B6818683B6859683B6812
:103E5000DB681A4600F0A6FA7B681B68402118460A
:103E600000F0FFFA0CE07B681A683B681B68194693
:103E7000104600F0F6FA03E00123FB7300E000BFF8
:103E80007B68012283F83D207B68002283F83C2078
:103E9000FB7B18461037BD4680BD80B483B000AFB1
:103EA000786000BF0C37BD465DF8047B704780B476
:103EB00083B000AF786000BF0C37BD465DF8047B6F
:103EC000704780B483B000AF786000BF0C37BD4648
:103ED0005DF8047B704780B483B000AF786000BFAA
:103EE0000C37BD465DF8047B7047000080B485B098
:103EF00000AF786039607B681B68FB607B68464A6E
:103F0000934213D07B68B3F1804F0FD07B68434A54
:103F100093420BD07B68424A934207D07B68414A68
:103F2000934203D07B68404A934208D1FB6823F058
:103F30007003FB603B685B68FA681343FB607B6857
:103F4000354A93422BD07B68B3F1804F27D07B68F2
:103F5000324A934223D07B68314A93421FD07B6818
:103F6000304A93421BD07B682F4A934217D07B681C
:103F70002E4A934213D07B682D4A93420FD07B6820
:103F80002C4A93420BD07B682B4A934207D07B6824
:103F90002A4A934203D07B68294A934208D1FB689E
:103FA00023F44073FB603B68DB68FA681343FB60F3
:103FB000FB6823F080023B685B691343FB607B680E
:103FC000FA681A603B689A687B68DA623B681A682C
:103FD0007B689A627B68104A934203D07B68124ADE
:103FE000934203D13B681A697B681A637B6801229C
:103FF0005A617B681B6903F00103012B05D17B68C3
:104000001B6923F001027B681A6100BF1437BD46AB
:104010005DF8047B704700BF0000014000040040D1
:1040200000080040000C0040000401400040014036
:10403000004401400048014000180040001C0040BE
:104040000020004080B487B000AF786039607B68A2
:104050001B6A7B617B681B6A23F001027B681A6222
:104060007B685B683B617B689B69FB60FB6823F056
:104070007003FB60FB6823F00303FB603B681B6875
:10408000FA681343FB607B6923F002037B613B68A2
:104090009B687A6913437B617B68204A934203D013
:1040A0007B681F4A93420CD17B6923F008037B6134
:1040B0003B68DB687A6913437B617B6923F0040307
:1040C0007B617B68154A934203D07B68144A934214
:1040D00011D13B6923F480733B613B6923F4007386
:1040E0003B613B685B693A6913433B613B689B6991
:1040F0003A6913433B617B683A695A607B68FA68A6
:104100009A613B685A687B685A637B687A691A626D
:1041100000BF1C37BD465DF8047B704700000140BE
:104120000004014080B487B000AF786039607B68DC
:104130001B6A7B617B681B6A23F010027B681A6232
:104140007B685B683B617B689B69FB60FB6823F471
:10415000E043FB60FB6823F44073FB603B681B6833
:104160001B02FA681343FB607B6923F020037B6129
:104170003B689B681B017A6913437B617B68224A19
:10418000934203D07B68214A93420DD17B6923F08F
:1041900080037B613B68DB681B017A6913437B61A9
:1041A0007B6923F040037B617B68174A934203D00D
:1041B0007B68164A934213D13B6923F480633B61C9
:1041C0003B6923F400633B613B685B699B003A6990
:1041D00013433B613B689B699B003A6913433B6116
:1041E0007B683A695A607B68FA689A613B685A68EA
:1041F0007B689A637B687A691A6200BF1C37BD4688
:104200005DF8047B704700BF0000014000040140DE
:1042100080B487B000AF786039607B681B6A7B61CF
:104220007B681B6A23F480727B681A627B685B6818
:104230003B617B68DB69FB60FB6823F07003FB601C
:10424000FB6823F00303FB603B681B68FA681343B9
:10425000FB607B6923F400737B613B689B681B02F6
:104260007A6913437B617B68214A934203D07B6860
:10427000204A93420DD17B6923F400637B613B6844
:10428000DB681B027A6913437B617B6923F48063DB
:104290007B617B68164A934203D07B68154A934240
:1042A00013D13B6923F480533B613B6923F40053F2
:1042B0003B613B685B691B013A6913433B613B68A7
:1042C0009B691B013A6913433B617B683A695A60F9
:1042D0007B68FA68DA613B685A687B68DA637B68F6
:1042E0007A691A6200BF1C37BD465DF8047B7047CF
:1042F000000001400004014080B487B000AF786046
:1043000039607B681B6A3B617B681B6A23F48052BF
:104310007B681A627B685B687B617B68DB69FB603A
:10432000FB6823F4E043FB60FB6823F44073FB600D
:104330003B681B681B02FA681343FB603B6923F46C
:1043400000533B613B689B681B033A6913433B6125
:104350007B68124A934203D07B68114A934209D189
:104360007B6923F480437B613B685B699B017A69CD
:1043700013437B617B687A695A607B68FA68DA610B
:104380003B685A687B681A647B683A691A6200BFA6
:104390001C37BD465DF8047B704700BF000001403C
:1043A0000004014080B487B000AFF860B9607A6063
:1043B000FB681B6A7B61FB681B6A23F00102FB68D8
:1043C0001A62FB689B693B613B6923F0F0033B6128
:1043D0007B681B013A6913433B617B6923F00A0345
:1043E0007B617A69BB6813437B61FB683A699A61B8
:1043F000FB687A691A6200BF1C37BD465DF8047B12
:10440000704780B487B000AFF860B9607A60FB682D
:104410001B6A7B61FB681B6A23F01002FB681A624F
:10442000FB689B693B613B6923F470433B617B689C
:104430001B033A6913433B617B6923F0A0037B6153
:10444000BB681B017A6913437B61FB683A699A6117
:10445000FB687A691A6200BF1C37BD465DF8047BB1
:10446000704780B485B000AF786039607B689B6826
:10447000FB60FB6823F07003FB603A68FB68134342
:1044800043F00703FB607B68FA689A6000BF14374B
:10449000BD465DF8047B704780B487B000AFF8601C
:1044A000B9607A603B60FB689B687B617B6923F441
:1044B0007F437B613B681A027B681A43BB681343E6
:1044C0007A6913437B61FB687A699A6000BF1C3785
:1044D000BD465DF8047B704780B487B000AFF860DC
:1044E000B9607A60BB6803F01F03012202FA03F38C
:1044F0007B61FB681A6A7B69DB431A40FB681A62BE
:10450000FB681A6ABB6803F01F03796801FA03F3BA
:104510001A43FB681A6200BF1C37BD465DF8047B76
:104520007047000080B584B000AF786039603B68A8
:10453000002B09D17B6893F84230DBB2012B14BF0A
:1045400001230023DBB222E03B68042B09D17B6806
:1045500093F84330DBB2012B14BF01230023DBB2FD
:1045600015E03B68082B09D17B6893F84430DBB237
:10457000012B14BF01230023DBB208E07B6893F812
:104580004530DBB2012B14BF01230023DBB2002B2B
:1045900001D001236DE03B68002B04D17B6802222F
:1045A00083F8422013E03B68042B04D17B6802228D
:1045B00083F843200BE03B68082B04D17B68022280
:1045C00083F8442003E07B68022283F845207B685F
:1045D0001B6804223968184600F040F97B681B68A4
:1045E0005A6C7B681B6842F400425A647B681B6803
:1045F000224A934222D07B681B68B3F1804F1DD0C2
:104600007B681B681E4A934218D07B681B681D4A52
:10461000934213D07B681B681B4A93420ED07B6881
:104620001B681A4A934209D07B681B68184A934258
:1046300004D07B681B68174A934211D17B681B68C2
:104640009B6803F00703FB60FB68062B10D07B68B8
:104650001B681A687B681B6842F001021A6007E059
:104660007B681B681A687B681B6842F001021A604D
:10467000002318461037BD4680BD00BF0000014032
:104680000004004000080040000C0040000401400D
:10469000004001400018004080B485B000AF786051
:1046A00039607B6893F83C30012B01D102235AE03A
:1046B0007B68012283F83C207B68022283F83D203E
:1046C0007B681B685B68FB607B681B689B68BB60E2
:1046D000FB6823F07003FB603B681B68FA681343B8
:1046E000FB607B681B68FA685A607B681B68214A1C
:1046F000934222D07B681B68B3F1804F1DD07B684A
:104700001B681D4A934218D07B681B681B4A934262
:1047100013D07B681B681A4A93420ED07B681B68D3
:10472000184A934209D07B681B68174A934204D009
:104730007B681B68154A93420CD1BB6823F0800349
:10474000BB603B685B68BA681343BB607B681B68EF
:10475000BA689A607B68012283F83D207B6800225A
:1047600083F83C20002318461437BD465DF8047BCF
:10477000704700BF000001400004004000080040F6
:10478000000C0040000401400040014000180040BF
:1047900080B485B000AF786039600023FB607B682F
:1047A00093F83C30012B01D102233DE07B680122CC
:1047B00083F83C20FB6823F0FF023B68DB6813436F
:1047C000FB60FB6823F440723B689B681343FB600B
:1047D000FB6823F480623B685B681343FB60FB6803
:1047E00023F400623B681B681343FB60FB6823F4FF
:1047F00080523B681B691343FB60FB6823F4005243
:104800003B685B691343FB60FB6823F480423B68B1
:10481000DB691343FB607B681B68FA685A647B683A
:10482000002283F83C20002318461437BD465DF86B
:10483000047B704780B483B000AF786000BF0C3752
:10484000BD465DF8047B704780B483B000AF7860EC
:1048500000BF0C37BD465DF8047B704780B487B05D
:1048600000AFF860B9607A60BB6803F00F03042200
:1048700002FA03F37B61FB681A6A7B69DB431A4027
:10488000FB681A62FB681A6ABB6803F00F03796859
:1048900001FA03F31A43FB681A6200BF1C37BD46D6
:1048A0005DF8047B704780B582B000AF78607B68AC
:1048B000002B01D1012342E07B6893F84130DBB249
:1048C000002B06D17B68002283F840207868FCF733
:1048D0004FFE7B68242283F841207B681B68DA68DE
:1048E0007B681B6822F40052DA60786800F0BEFD35
:1048F0007B681B681A697B681B6822F490421A6106
:104900007B681B685A697B681B6822F02A025A611F
:104910007B681B68DA687B681B6842F40052DA60C7
:104920007B6800225A647B68202283F841207B68E0
:10493000202283F842207B6800225A630023184615
:104940000837BD4680BD80B58AB002AFF860B96057
:104950003B601346FB8000237B61FB6893F841308A
:10496000DBB2202B75D1BB68002B02D0FB88002B5B
:1049700001D101236EE0FB6800225A64FB6821220A
:1049800083F84120FCF776FF7861FB68FA889A8407
:10499000FB68FA88DA84FB689B68B3F5805F08D10E
:1049A000FB681B69002B04D10023FB61BB68BB6162
:1049B00003E0BB68FB610023BB612EE03B68009312
:1049C0007B6900228021F86800F020FB0346002B61
:1049D00005D0FB68202283F8412003233AE0FB69DD
:1049E000002B0BD1BB691B881A46FB681B68C2F3FE
:1049F00008025A60BB690233BB6107E0FB691A78A1
:104A0000FB681B685A60FB690133FB61FB68DB8C48
:104A10009BB2013B9AB2FB68DA84FB68DB8C9BB2E9
:104A2000002BCBD13B6800937B6900224021F868C2
:104A300000F0ECFA0346002B05D0FB68202283F837
:104A40004120032306E0FB68202283F84120002355
:104A500000E0022318462037BD4680BD80B584B0F3
:104A600000AFF860B9601346FB80FB6893F84230F2
:104A7000DBB2202B12D1BB68002B02D0FB88002BAD
:104A800001D101230BE0FB6800221A63FB881A4660
:104A9000B968F86800F013FB034600E002231846EB
:104AA0001037BD4680BD000080B5BAB000AF786059
:104AB0007B681B681B68C7F8E4307B681B68DB6891
:104AC000C7F8E0307B681B685B69C7F8DC300023FF
:104AD000C7F8D8300023C7F8D430D7F8E43003F053
:104AE0000F03C7F8D830D7F8D830002B0FD1D7F83C
:104AF000E43003F02003002B09D0D7F8E03003F0B6
:104B00002003002B03D0786800F0F2FB5BE2D7F8BB
:104B1000D830002B00F0DE80D7F8DC3003F0010342
:104B2000002B06D1D7F8E03003F49073002B00F08F
:104B3000D180D7F8E43003F00103002B0BD0D7F875
:104B4000E03003F48073002B05D07B685B6C43F08E
:104B500001027B685A64D7F8E43003F00403002BA9
:104B60000BD0D7F8DC3003F00103002B05D07B68B5
:104B70005B6C43F002027B685A64D7F8E43003F0C0
:104B80000203002B0BD0D7F8DC3003F00103002B1D
:104B900005D07B685B6C43F004027B685A64D7F8ED
:104BA000E43003F00803002B11D0D7F8E03003F015
:104BB0002003002B05D1D7F8DC3003F00103002BD4
:104BC00005D07B685B6C43F008027B685A647B68A5
:104BD0005B6C002B00F0F281D7F8E43003F0200387
:104BE000002B08D0D7F8E03003F02003002B02D0D0
:104BF000786800F07DFB7B681B685B6903F040030D
:104C0000402B0CBF01230023DBB2C7F8D4307B68F4
:104C10005B6C03F00803002B03D1D7F8D430002BD2
:104C20004FD0786800F085FA7B681B685B6903F0F9
:104C30004003402B41D17B681B681433C7F89C307C
:104C4000D7F89C3053E8003FC7F89830D7F8983031
:104C500023F04003C7F8D0307B681B681433D7F8C3
:104C6000D020C7F8A820C7F8A430D7F8A410D7F8E8
:104C7000A82041E80023C7F8A030D7F8A030002BC7
:104C8000D9D17B68DB6B002B13D07B68DB6B7E4A52
:104C90001A657B68DB6B1846FDF729FE0346002B7F
:104CA00016D07B68DB6B1B6D7A68D26B1046984719
:104CB0000EE0786800F094F90AE0786800F090F966
:104CC00006E0786800F08CF97B6800225A6475E190
:104CD00000BF73E17B681B6B012B40F04F81D7F85D
:104CE000E43003F01003002B00F04881D7F8E030E7
:104CF00003F01003002B00F041810023BB607B68B0
:104D00001B681B68BB607B681B685B68BB60BB681B
:104D10007B681B685B6903F04003402B40F0B68062
:104D20007B68DB6B1B685B68A7F8BE30B7F8BE30EA
:104D3000002B00F045817B689B8DB7F8BE209A421E
:104D400080F03E817B68B7F8BE20DA857B68DB6B3C
:104D5000DB69B3F5807F00F088807B681B680C33CB
:104D6000C7F88830D7F8883053E8003FC7F8843058
:104D7000D7F8843023F48073C7F8B8307B681B6899
:104D80000C33D7F8B820C7F89420C7F89030D7F87C
:104D90009010D7F8942041E80023C7F88C30D7F85A
:104DA0008C30002BD9D17B681B6814337B677B6FF9
:104DB00053E8003F3B673B6F23F00103C7F8B43073
:104DC0007B681B681433D7F8B420C7F88020FB67D2
:104DD000F96FD7F8802041E80023BB67BB6F002B39
:104DE000E1D17B681B6814333B663B6E53E8003FA0
:104DF000FB65FB6D23F04003C7F8B0307B681B6890
:104E00001433D7F8B020FA66BB66B96EFA6E41E883
:104E100000237B667B6E002BE3D17B68202283F826
:104E200042207B6800221A637B681B680C33FB649A
:104E3000FB6C53E8003FBB64BB6C23F01003C7F866
:104E4000AC307B681B680C33D7F8AC20BA657B6547
:104E5000796DBA6D41E800233B653B6D002BE3D1D2
:104E60007B68DB6B1846FDF7D2FC7B6802225A6335
:104E70007B689A8D7B68DB8D9BB2D31A9BB21946F7
:104E8000786800F0B7F89BE0F95100087B689A8DCC
:104E90007B68DB8D9BB2D31AA7F8CE307B68DB8DA5
:104EA0009BB2002B00F08E80B7F8CE30002B00F0C4
:104EB00089807B681B680C33BB63BB6B53E8003F86
:104EC0007B637B6B23F49073C7F8C8307B681B68E7
:104ED0000C33D7F8C8207A643B64396C7A6C41E8AB
:104EE0000023FB63FB6B002BE3D17B681B6814334F
:104EF0007B627B6A53E8003F3B623B6A23F001031D
:104F0000C7F8C4307B681B681433D7F8C4203A63F1
:104F1000FB62F96A3A6B41E80023BB62BB6A002B73
:104F2000E3D17B68202283F842207B6800221A6349
:104F30007B681B680C333B613B6953E8003FFB60B7
:104F4000FB6823F01003C7F8C0307B681B680C3384
:104F5000D7F8C020FA61BB61B969FA6941E800235A
:104F60007B617B69002BE3D17B6802225A63B7F82F
:104F7000CE301946786800F03DF823E0D7F8E430E9
:104F800003F08003002B09D0D7F8E03003F0800352
:104F9000002B03D0786800F043F914E0D7F8E43030
:104FA00003F04003002B0ED0D7F8E03003F04003AD
:104FB000002B08D0786800F083F904E000BF02E01D
:104FC00000BF00E000BFE837BD4680BD80B483B0BD
:104FD00000AF786000BF0C37BD465DF8047B7047BA
:104FE00080B483B000AF786000BF0C37BD465DF879
:104FF000047B704780B483B000AF78600B467B8041
:1050000000BF0C37BD465DF8047B704780B586B0A5
:1050100000AFF860B9603B601346FB713BE03B6A50
:10502000B3F1FF3F37D0FCF725FC02463B68D31AAB
:105030003A6A9A4202D33B6A002B01D103233AE039
:10504000FB681B68DB6803F00403002B23D0BB68FC
:10505000802B20D0BB68402B1DD0FB681B681B68D1
:1050600003F00803082B16D100237B61FB681B6843
:105070001B687B61FB681B685B687B617B69F86808
:1050800000F057F8FB6808225A64FB68002283F896
:10509000402001230FE0FB681B681A68BB681340BF
:1050A000BA689A420CBF01230023DBB21A46FB798F
:1050B0009A42B4D0002318461837BD4680BD80B44C
:1050C00085B000AFF860B9601346FB80FB68BA6832
:1050D0009A62FB68FA889A85FB68FA88DA85FB6829
:1050E00000225A64FB68222283F84220FB681B6975
:1050F000002B07D0FB681B68DA68FB681B6842F46A
:105100008072DA60FB681B685A69FB681B6842F0B2
:1051100001025A61FB681B68DA68FB681B6842F091
:105120002002DA60002318461437BD465DF8047B80
:10513000704780B495B000AF78607B681B680C3313
:105140007B637B6B53E8003F3B633B6B23F49073C3
:10515000FB647B681B680C33FA6C3A64FB63F96B85
:105160003A6C41E80023BB63BB6B002BE5D17B6845
:105170001B6814333B623B6A53E8003FFB61FB69E9
:1051800023F00103BB647B681B681433BA6CFA62BA
:10519000BB62B96AFA6A41E800237B627B6A002B32
:1051A000E5D17B681B6B012B19D17B681B680C3325
:1051B000FB60FB6853E8003FBB60BB6823F0100353
:1051C0007B647B681B680C337A6CBA617B6179699C
:1051D000BA6941E800233B613B69002BE5D17B685C
:1051E000202283F842207B6800221A6300BF5437D4
:1051F000BD465DF8047B704780B584B000AF786031
:105200007B689B6BFB60FB680022DA85FB680022F1
:10521000DA84F868FFF7E4FE00BF1037BD4680BDB2
:1052200080B485B000AF78607B6893F84130DBB222
:10523000212B3ED17B689B68B3F5805F14D17B68DE
:105240001B69002B10D17B681B6AFB60FB681B8805
:105250001A467B681B68C2F308025A607B681B6AA7
:105260009A1C7B681A6208E07B681B6A591C7A6882
:1052700011621A787B681B685A607B68DB8C9BB272
:10528000013B9BB27A681946D184002B0FD17B6811
:105290001B68DA687B681B6822F08002DA607B6832
:1052A0001B68DA687B681B6842F04002DA60002302
:1052B00000E0022318461437BD465DF8047B7047B2
:1052C00080B582B000AF78607B681B68DA687B6865
:1052D0001B6822F04002DA607B68202283F84120BC
:1052E0007868FFF773FE002318460837BD4680BD77
:1052F00080B58CB000AF78607B6893F84230DBB249
:10530000222B40F0AE807B689B68B3F5805F17D19D
:105310007B681B69002B13D10023FB627B689B6AAF
:10532000BB627B681B685B689BB2C3F308039AB2DD
:10533000BB6A1A807B689B6A9A1C7B689A6226E02B
:105340007B689B6AFB620023BB627B689B68B3F54A
:10535000805F07D07B689B68002B0AD17B681B6944
:10536000002B06D17B681B685B68DAB2FB6A1A7097
:1053700008E07B681B685B68DBB203F07F03DAB28E
:10538000FB6A1A707B689B6A5A1C7B689A627B680E
:10539000DB8D9BB2013B9BB27A681946D185002B0D
:1053A0005DD17B681B68DA687B681B6822F020028D
:1053B000DA607B681B68DA687B681B6822F480729D
:1053C000DA607B681B685A697B681B6822F00102FF
:1053D0005A617B68202283F842207B6800225A634E
:1053E0007B681B6B012B35D17B6800221A637B68BD
:1053F0001B680C337B617B6953E8003F3B613B6971
:1054000023F010037B627B681B680C337A6A3A6274
:10541000FB61F9693A6A41E80023BB61BB69002B73
:10542000E5D17B681B681B6803F01003102B0AD1C1
:105430000023FB607B681B681B68FB607B681B6844
:105440005B68FB60FB687B689B8D19467868FFF79B
:10545000D1FD02E07868FBF7BFFD002302E00023E6
:1054600000E0022318463037BD4680BD2DE9B04F1D
:10547000C0B000AFC7F8F400D7F8F4301B681B6960
:1054800023F44050D7F8F430D968D7F8F4301A68CC
:1054900040EA01031361D7F8F4309A68D7F8F43082
:1054A0001B691A43D7F8F4305B691A43D7F8F43014
:1054B000DB691343C7F8F830D7F8F4301B68DB68B2
:1054C00023F4164121F00C01D7F8F4301A68D7F80C
:1054D000F8300B43D360D7F8F4301B685B6923F4D2
:1054E0004070D7F8F4309969D7F8F4301A6840EA78
:1054F00001035361D7F8F4301A688F4B9A4205D0F4
:10550000D7F8F4301A688D4B9A4204D1FEF756F85A
:10551000C7F8FC0003E0FEF73DF8C7F8FC00D7F839
:10552000F430DB69B3F5004F40F00C81D7F8FC3064
:105530000022C7F8E830C7F8EC20D7E93A45224600
:105540002B469118B9655B41FB65D7E916232146C7
:1055500012EB0108294643EB01094FF000024FF01E
:1055600000034FEAC90343EA58734FEAC802904662
:105570009946234618EB0303C7F8E0302B4649EB66
:105580000303C7F8E430D7F8F4305B680022C7F8AB
:10559000D830C7F8DC20D7E936120B46DB183B655C
:1055A000134642EB03037B65D7E91423D7E938019F
:1055B000FAF75EFE02460B46614BA3FB02235B0932
:1055C0001C01D7F8FC300022C7F8D030C7F8D4202F
:1055D000D7E9348942464B469118B9645B41FB6474
:1055E000D7E91223414612EB010A494643EB010B6E
:1055F0004FF000024FF000034FEACB0343EA5A7327
:105600004FEACA0292469B4643461AEB0303C7F889
:10561000C8304B464BEB0303C7F8CC30D7F8F43017
:105620005B680022C7F8C030C7F8C420D7E9301241
:105630000B46DB183B64134642EB03037B64D7E95C
:105640001023D7E93201FAF713FE02460B46114642
:105650003B4BA3FB01235B09642202FB03F3CB1A40
:10566000DB0003F13202364BA3FB02235B095B0034
:1056700003F4F8731C44D7F8FC300022C7F8B830A4
:10568000C7F8BC20D7E92E8942464B469118B9632A
:105690005B41FB63D7E90E23414651183963494604
:1056A0004B417B634FF000024FF00003D7E90CAB96
:1056B0005946CB00514643EA51735146CA00104641
:1056C0001946034642469B18C7F8B0304B460A4677
:1056D00042EB0303C7F8B430D7F8F4305B6800221C
:1056E000C7F8A830C7F8AC20D7E92A120B46DB1858
:1056F000BB62134642EB0303FB62D7E90A23D7E9F7
:105700002C01FAF7B5FD02460B460D4BA3FB021325
:105710005B09642101FB03F3D31ADB003233084A2F
:10572000A2FB03235B0903F00702D7F8F4301B68E0
:1057300022449A6006E100BF0010014000140140BD
:105740001F85EB51D7F8FC300022C7F8A030C7F80E
:10575000A420D7E9288942464B46911839625B411B
:105760007B62D7E9082341465418494643EB0105BB
:105770004FF000024FF00003EB0043EA5473E200E5
:1057800014461D464346E318C7F898304B4645EB90
:105790000303C7F89C30D7F8F4305B680022C7F8E1
:1057A0009030C7F894204FF000024FF00003D7E983
:1057B000244529468B00214643EA917321468A00FD
:1057C000D7E92601FAF754FD02460B46604BA3FBCE
:1057D00002235B091C01D7F8FC300022C7F888308F
:1057E000C7F88C20D7E9228942464B469118B96107
:1057F0005B41FB61D7E906234146511839614946AF
:105800004B417B614FF000024FF00003D7E904AB3E
:105810005946CB00514643EA51735146CA001046DF
:105820001946034642469B18C7F880304B460A4645
:1058300042EB0303C7F88430D7F8F4305B680022EA
:10584000BB67FA674FF000024FF00003D7E91E89EB
:1058500049468B00414643EA917341468A00D7E9A5
:105860002001FAF705FD02460B461146384BA3FB13
:1058700001235B09642202FB03F3CB1A1B013233C1
:10588000334AA2FB03235B0903F0F0031C44D7F85F
:10589000FC3000223B677A67D7E91C8942464B46B9
:1058A0009118B9605B41FB60D7E90223414651186A
:1058B000396049464B417B604FF000024FF00003D6
:1058C000D7E900AB5946CB00514643EA51735146E4
:1058D000CA0010461946034642469B18BB664B4613
:1058E0000A4642EB0303FB66D7F8F4305B680022FC
:1058F0003B667A664FF000024FF00003D7E9188943
:1059000049468B00414643EA917341468A00D7E9F4
:105910001A01FAF7ADFC02460B460D4BA3FB02132E
:105920005B09642101FB03F3D31A1B013233084ADC
:10593000A2FB03235B0903F00F02D7F8F4301B68C6
:1059400022449A6000BF07F58077BD46BDE8B08F5E
:105950001F85EB510EB400B59CB01DAB02900690B4
:105960006FF00041094807910491094953F8042B4D
:1059700005910068019302A900F092F9029B0022B0
:105980001A701CB05DF804EB03B07047AC00002047
:105990000802FFFF02440346934200D1704703F818
:1059A000011BF9E7014B1868704700BFAC000020ED
:1059B00070B50D4D0D4C641BA4100026A64209D1F4
:1059C0000B4D0C4C00F06AFC641BA4100026A64290
:1059D00005D170BD55F8043B98470136EEE755F800
:1059E000043B98470136F2E76063000860630008F3
:1059F00060630008646300087047704737B500298A
:105A000044D051F8043C0190002BA1F10404B8BF2C
:105A1000E41800F0DFF81E4A0198136833B9636098
:105A2000146003B0BDE8304000F0DAB8A34208D9F2
:105A3000256861198B4201BF19685B6849192160AB
:105A4000EDE71A465B680BB1A342FAD91168551805
:105A5000A5420BD1246821445418A3421160E0D11F
:105A60001C685B6853600C441460DAE702D90C23AD
:105A70000360D6E7256861198B4204BF19685B682B
:105A8000636004BF491921605460CAE703B030BDA8
:105A90008404002070B50E4E0C463168054611B9DD
:105AA00000F0A6FB30602146284600F0A1FB431C15
:105AB0000AD0C41C24F00304A04207D0211A2846AF
:105AC00000F096FB013001D14FF0FF34204670BD4D
:105AD000880400202DE9F843CD1C25F00305083586
